{
  "_format": "hh-sol-artifact-1",
  "contractName": "ZKPPrivacyContract",
  "sourceName": "contracts/ZKPPrivacyContract.sol",
  "abi": [
    {
      "inputs": [],
      "stateMutability": "nonpayable",
      "type": "constructor"
    },
    {
      "inputs": [],
      "name": "EnforcedPause",
      "type": "error"
    },
    {
      "inputs": [],
      "name": "ExpectedPause",
      "type": "error"
    },
    {
      "inputs": [
        {
          "internalType": "address",
          "name": "owner",
          "type": "address"
        }
      ],
      "name": "OwnableInvalidOwner",
      "type": "error"
    },
    {
      "inputs": [
        {
          "internalType": "address",
          "name": "account",
          "type": "address"
        }
      ],
      "name": "OwnableUnauthorizedAccount",
      "type": "error"
    },
    {
      "inputs": [],
      "name": "ReentrancyGuardReentrantCall",
      "type": "error"
    },
    {
      "anonymous": false,
      "inputs": [
        {
          "indexed": true,
          "internalType": "bytes32",
          "name": "commitment",
          "type": "bytes32"
        },
        {
          "indexed": false,
          "internalType": "uint256",
          "name": "amount",
          "type": "uint256"
        },
        {
          "indexed": false,
          "internalType": "uint256",
          "name": "timestamp",
          "type": "uint256"
        }
      ],
      "name": "Deposit",
      "type": "event"
    },
    {
      "anonymous": false,
      "inputs": [
        {
          "indexed": true,
          "internalType": "address",
          "name": "previousOwner",
          "type": "address"
        },
        {
          "indexed": true,
          "internalType": "address",
          "name": "newOwner",
          "type": "address"
        }
      ],
      "name": "OwnershipTransferred",
      "type": "event"
    },
    {
      "anonymous": false,
      "inputs": [
        {
          "indexed": false,
          "internalType": "address",
          "name": "account",
          "type": "address"
        }
      ],
      "name": "Paused",
      "type": "event"
    },
    {
      "anonymous": false,
      "inputs": [
        {
          "indexed": true,
          "internalType": "bytes32",
          "name": "commitment",
          "type": "bytes32"
        },
        {
          "indexed": true,
          "internalType": "bytes32",
          "name": "nullifier",
          "type": "bytes32"
        },
        {
          "indexed": false,
          "internalType": "uint256",
          "name": "timestamp",
          "type": "uint256"
        }
      ],
      "name": "ProofVerified",
      "type": "event"
    },
    {
      "anonymous": false,
      "inputs": [
        {
          "indexed": false,
          "internalType": "address",
          "name": "account",
          "type": "address"
        }
      ],
      "name": "Unpaused",
      "type": "event"
    },
    {
      "anonymous": false,
      "inputs": [
        {
          "indexed": true,
          "internalType": "bytes32",
          "name": "nullifier",
          "type": "bytes32"
        },
        {
          "indexed": true,
          "internalType": "address",
          "name": "recipient",
          "type": "address"
        },
        {
          "indexed": false,
          "internalType": "uint256",
          "name": "amount",
          "type": "uint256"
        },
        {
          "indexed": false,
          "internalType": "uint256",
          "name": "timestamp",
          "type": "uint256"
        }
      ],
      "name": "Withdrawal",
      "type": "event"
    },
    {
      "inputs": [],
      "name": "CURVE_ORDER",
      "outputs": [
        {
          "internalType": "uint256",
          "name": "",
          "type": "uint256"
        }
      ],
      "stateMutability": "view",
      "type": "function"
    },
    {
      "inputs": [],
      "name": "FIELD_MODULUS",
      "outputs": [
        {
          "internalType": "uint256",
          "name": "",
          "type": "uint256"
        }
      ],
      "stateMutability": "view",
      "type": "function"
    },
    {
      "inputs": [
        {
          "internalType": "address",
          "name": "",
          "type": "address"
        }
      ],
      "name": "balances",
      "outputs": [
        {
          "internalType": "uint256",
          "name": "",
          "type": "uint256"
        }
      ],
      "stateMutability": "view",
      "type": "function"
    },
    {
      "inputs": [
        {
          "internalType": "bytes32",
          "name": "",
          "type": "bytes32"
        }
      ],
      "name": "commitments",
      "outputs": [
        {
          "internalType": "bool",
          "name": "",
          "type": "bool"
        }
      ],
      "stateMutability": "view",
      "type": "function"
    },
    {
      "inputs": [
        {
          "internalType": "bytes32",
          "name": "commitment",
          "type": "bytes32"
        }
      ],
      "name": "deposit",
      "outputs": [],
      "stateMutability": "payable",
      "type": "function"
    },
    {
      "inputs": [],
      "name": "emergencyWithdraw",
      "outputs": [],
      "stateMutability": "nonpayable",
      "type": "function"
    },
    {
      "inputs": [],
      "name": "getBalance",
      "outputs": [
        {
          "internalType": "uint256",
          "name": "",
          "type": "uint256"
        }
      ],
      "stateMutability": "view",
      "type": "function"
    },
    {
      "inputs": [
        {
          "internalType": "bytes32",
          "name": "commitment",
          "type": "bytes32"
        }
      ],
      "name": "isCommitmentUsed",
      "outputs": [
        {
          "internalType": "bool",
          "name": "",
          "type": "bool"
        }
      ],
      "stateMutability": "view",
      "type": "function"
    },
    {
      "inputs": [
        {
          "internalType": "bytes32",
          "name": "nullifier",
          "type": "bytes32"
        }
      ],
      "name": "isNullifierUsed",
      "outputs": [
        {
          "internalType": "bool",
          "name": "",
          "type": "bool"
        }
      ],
      "stateMutability": "view",
      "type": "function"
    },
    {
      "inputs": [
        {
          "internalType": "bytes32",
          "name": "",
          "type": "bytes32"
        }
      ],
      "name": "nullifiers",
      "outputs": [
        {
          "internalType": "bool",
          "name": "",
          "type": "bool"
        }
      ],
      "stateMutability": "view",
      "type": "function"
    },
    {
      "inputs": [],
      "name": "owner",
      "outputs": [
        {
          "internalType": "address",
          "name": "",
          "type": "address"
        }
      ],
      "stateMutability": "view",
      "type": "function"
    },
    {
      "inputs": [],
      "name": "pause",
      "outputs": [],
      "stateMutability": "nonpayable",
      "type": "function"
    },
    {
      "inputs": [],
      "name": "paused",
      "outputs": [
        {
          "internalType": "bool",
          "name": "",
          "type": "bool"
        }
      ],
      "stateMutability": "view",
      "type": "function"
    },
    {
      "inputs": [],
      "name": "renounceOwnership",
      "outputs": [],
      "stateMutability": "nonpayable",
      "type": "function"
    },
    {
      "inputs": [
        {
          "internalType": "uint256[2]",
          "name": "_alpha1",
          "type": "uint256[2]"
        },
        {
          "internalType": "uint256[2][2]",
          "name": "_beta2",
          "type": "uint256[2][2]"
        },
        {
          "internalType": "uint256[2][2]",
          "name": "_gamma2",
          "type": "uint256[2][2]"
        },
        {
          "internalType": "uint256[2][2]",
          "name": "_delta2",
          "type": "uint256[2][2]"
        },
        {
          "internalType": "uint256[2][]",
          "name": "_ic",
          "type": "uint256[2][]"
        }
      ],
      "name": "setVerificationKey",
      "outputs": [],
      "stateMutability": "nonpayable",
      "type": "function"
    },
    {
      "inputs": [
        {
          "internalType": "address",
          "name": "newOwner",
          "type": "address"
        }
      ],
      "name": "transferOwnership",
      "outputs": [],
      "stateMutability": "nonpayable",
      "type": "function"
    },
    {
      "inputs": [],
      "name": "unpause",
      "outputs": [],
      "stateMutability": "nonpayable",
      "type": "function"
    },
    {
      "inputs": [],
      "name": "verificationKeySet",
      "outputs": [
        {
          "internalType": "bool",
          "name": "",
          "type": "bool"
        }
      ],
      "stateMutability": "view",
      "type": "function"
    },
    {
      "inputs": [
        {
          "components": [
            {
              "internalType": "uint256[2]",
              "name": "a",
              "type": "uint256[2]"
            },
            {
              "internalType": "uint256[2][2]",
              "name": "b",
              "type": "uint256[2][2]"
            },
            {
              "internalType": "uint256[2]",
              "name": "c",
              "type": "uint256[2]"
            }
          ],
          "internalType": "struct ZKPPrivacyContract.Proof",
          "name": "proof",
          "type": "tuple"
        },
        {
          "components": [
            {
              "internalType": "uint256",
              "name": "commitment",
              "type": "uint256"
            },
            {
              "internalType": "uint256",
              "name": "nullifier",
              "type": "uint256"
            },
            {
              "internalType": "uint256",
              "name": "publicInput",
              "type": "uint256"
            }
          ],
          "internalType": "struct ZKPPrivacyContract.PublicInputs",
          "name": "publicInputs",
          "type": "tuple"
        },
        {
          "internalType": "address payable",
          "name": "recipient",
          "type": "address"
        },
        {
          "internalType": "uint256",
          "name": "amount",
          "type": "uint256"
        }
      ],
      "name": "withdraw",
      "outputs": [],
      "stateMutability": "nonpayable",
      "type": "function"
    },
    {
      "stateMutability": "payable",
      "type": "receive"
    }
  ],
  "bytecode": "0x608060405234801561001057600080fd5b50338061003757604051631e4fbdf760e01b81526000600482015260240160405180910390fd5b6100408161004a565b506001805561009a565b600080546001600160a01b038381166001600160a01b0319831681178455604051919092169283917f8be0079c531659141344cd1fd0a4f28419497f9722a3daafe3b4186f6b6457e09190a35050565b611339806100a96000396000f3fe6080604052600436106101185760003560e01c806373913571116100a0578063b214faa511610064578063b214faa514610324578063b61b395c14610337578063bd17bac914610367578063db2e21bc14610387578063f2fde38b1461039c57600080fd5b8063739135711461026357806381cca3c114610283578063839df945146102b75780638456cb59146102e75780638da5cb5b146102fc57600080fd5b80632ed61014116100e75780632ed61014146101e35780633f4ba83a146101fd5780634f76a98e146102145780635c975abb14610236578063715018a61461024e57600080fd5b806312065fe01461012457806322dc7b4c1461014657806327e235e3146101865780632997e86b146101b357600080fd5b3661011f57005b600080fd5b34801561013057600080fd5b50475b6040519081526020015b60405180910390f35b34801561015257600080fd5b50610176610161366004610f96565b60009081526004602052604090205460ff1690565b604051901515815260200161013d565b34801561019257600080fd5b506101336101a1366004610fc4565b60056020526000908152604090205481565b3480156101bf57600080fd5b506101766101ce366004610f96565b60046020526000908152604090205460ff1681565b3480156101ef57600080fd5b506015546101769060ff1681565b34801561020957600080fd5b506102126103bc565b005b34801561022057600080fd5b506101336000805160206112e483398151915281565b34801561024257600080fd5b5060025460ff16610176565b34801561025a57600080fd5b506102126103ce565b34801561026f57600080fd5b5061021261027e36600461112a565b6103e0565b34801561028f57600080fd5b506101337f30644e72e131a029b85045b68181585d2833e84879b9709143e1f593f000000181565b3480156102c357600080fd5b506101766102d2366004610f96565b60036020526000908152604090205460ff1681565b3480156102f357600080fd5b5061021261071f565b34801561030857600080fd5b506000546040516001600160a01b03909116815260200161013d565b610212610332366004610f96565b61072f565b34801561034357600080fd5b50610176610352366004610f96565b60009081526003602052604090205460ff1690565b34801561037357600080fd5b506102126103823660046111e4565b61089a565b34801561039357600080fd5b50610212610941565b3480156103a857600080fd5b506102126103b7366004610fc4565b6109ec565b6103c4610a27565b6103cc610a54565b565b6103d6610a27565b6103cc6000610aa6565b6103e8610af6565b6103f0610b1a565b60155460ff166104475760405162461bcd60e51b815260206004820152601860248201527f566572696669636174696f6e206b6579206e6f7420736574000000000000000060448201526064015b60405180910390fd5b6001600160a01b0382166104915760405162461bcd60e51b8152602060048201526011602482015270125b9d985b1a59081c9958da5c1a595b9d607a1b604482015260640161043e565b600081116104e15760405162461bcd60e51b815260206004820152601d60248201527f416d6f756e74206d7573742062652067726561746572207468616e2030000000604482015260640161043e565b478111156105315760405162461bcd60e51b815260206004820152601d60248201527f496e73756666696369656e7420636f6e74726163742062616c616e6365000000604482015260640161043e565b60208084015160009081526004909152604090205460ff161561058f5760405162461bcd60e51b8152602060048201526016602482015275139d5b1b1a599a595c88185b1c9958591e481d5cd95960521b604482015260640161043e565b6105998484610b44565b6105d55760405162461bcd60e51b815260206004820152600d60248201526c24b73b30b634b210383937b7b360991b604482015260640161043e565b602083810151600090815260049091526040808220805460ff19166001179055516001600160a01b0384169083908381818185875af1925050503d806000811461063b576040519150601f19603f3d011682016040523d82523d6000602084013e610640565b606091505b50509050806106835760405162461bcd60e51b815260206004820152600f60248201526e151c985b9cd9995c8819985a5b1959608a1b604482015260640161043e565b6020808501516040805185815242938101939093526001600160a01b038616927f2865d567636cfb8b64e349af19627e3ef92dc0c2cabfe3b1fd3e659425938e8f910160405180910390a3602084015184516040517f5218389e256f588f1b0c542d774ec9ba39106830c105126b25a30eab96afa3be906107079042815260200190565b60405180910390a35061071960018055565b50505050565b610727610a27565b6103cc610d87565b610737610af6565b61073f610b1a565b6000341161078f5760405162461bcd60e51b815260206004820152601d60248201527f416d6f756e74206d7573742062652067726561746572207468616e2030000000604482015260640161043e565b60008181526003602052604090205460ff16156107ee5760405162461bcd60e51b815260206004820152601760248201527f436f6d6d69746d656e7420616c72656164792075736564000000000000000000604482015260640161043e565b806108305760405162461bcd60e51b8152602060048201526012602482015271125b9d985b1a590818dbdb5b5a5d1b595b9d60721b604482015260640161043e565b60008181526003602052604090819020805460ff191660011790555181907fe1f1096fd8bc7d572fb7ad7e4102736b6615500975c0252ea91ef1b765c49897906108869034904290918252602082015260400190565b60405180910390a261089760018055565b50565b6108a2610a27565b6108af6006866002610e98565b506108bd6008856002610ed6565b506108cb600c846002610ed6565b506108d96010836002610ed6565b5080516108ed906014906020840190610f1d565b506015805460ff1916600117905560405160009081907f5218389e256f588f1b0c542d774ec9ba39106830c105126b25a30eab96afa3be906109329042815260200190565b60405180910390a35050505050565b610949610a27565b600080546040516001600160a01b039091169047908381818185875af1925050503d8060008114610996576040519150601f19603f3d011682016040523d82523d6000602084013e61099b565b606091505b50509050806108975760405162461bcd60e51b815260206004820152601b60248201527f456d657267656e6379207769746864726177616c206661696c65640000000000604482015260640161043e565b6109f4610a27565b6001600160a01b038116610a1e57604051631e4fbdf760e01b81526000600482015260240161043e565b61089781610aa6565b6000546001600160a01b031633146103cc5760405163118cdaa760e01b815233600482015260240161043e565b610a5c610dc4565b6002805460ff191690557f5db9ee0a495bf2e6ff9c91a7834c1ba4fdd244a5e8aa4e537bd38aeae4b073aa335b6040516001600160a01b03909116815260200160405180910390a1565b600080546001600160a01b038381166001600160a01b0319831681178455604051919092169283917f8be0079c531659141344cd1fd0a4f28419497f9722a3daafe3b4186f6b6457e09190a35050565b60025460ff16156103cc5760405163d93c066560e01b815260040160405180910390fd5b600260015403610b3d57604051633ee5aeb560e01b815260040160405180910390fd5b6002600155565b6000610b538360000151610de7565b610b915760405162461bcd60e51b815260206004820152600f60248201526e496e76616c69642070726f6f662e6160881b604482015260640161043e565b610b9e8360400151610de7565b610bdc5760405162461bcd60e51b815260206004820152600f60248201526e496e76616c69642070726f6f662e6360881b604482015260640161043e565b610be98360200151610e23565b610c275760405162461bcd60e51b815260206004820152600f60248201526e24b73b30b634b210383937b7b3173160891b604482015260640161043e565b81516000805160206112e483398151915211610c7a5760405162461bcd60e51b8152602060048201526012602482015271125b9d985b1a590818dbdb5b5a5d1b595b9d60721b604482015260640161043e565b6000805160206112e4833981519152826020015110610ccf5760405162461bcd60e51b815260206004820152601160248201527024b73b30b634b210373ab63634b334b2b960791b604482015260640161043e565b6000805160206112e4833981519152826040015110610d275760405162461bcd60e51b8152602060048201526014602482015273125b9d985b1a59081c1d589b1a58c81a5b9c1d5d60621b604482015260640161043e565b815160009081526003602052604090205460ff16610d7e5760405162461bcd60e51b815260206004820152601460248201527310dbdb5b5a5d1b595b9d081b9bdd08199bdd5b9960621b604482015260640161043e565b50600192915050565b610d8f610af6565b6002805460ff191660011790557f62e78cea01bee320cd4e420270b5ea74000d11b0c9f74754ebdbfc544b05a258610a893390565b60025460ff166103cc57604051638dfc202b60e01b815260040160405180910390fd5b80516000906000805160206112e4833981519152118015610e1d57506000805160206112e48339815191528260015b6020020151105b92915050565b8051516000906000805160206112e4833981519152118015610e5757508151602001516000805160206112e4833981519152115b8015610e7557506020820151516000805160206112e4833981519152115b8015610e1d575060208201516000805160206112e4833981519152906001610e16565b8260028101928215610ec6579160200282015b82811115610ec6578251825591602001919060010190610eab565b50610ed2929150610f67565b5090565b600483019183908215610f11579160200282015b82811115610f11578251610f019083906002610e98565b5091602001919060020190610eea565b50610ed2929150610f7c565b828054828255906000526020600020906002028101928215610f11579160200282015b82811115610f11578251610f579083906002610e98565b5091602001919060020190610f40565b5b80821115610ed25760008155600101610f68565b80821115610ed25760008082556001820155600201610f7c565b600060208284031215610fa857600080fd5b5035919050565b6001600160a01b038116811461089757600080fd5b600060208284031215610fd657600080fd5b8135610fe181610faf565b9392505050565b634e487b7160e01b600052604160045260246000fd5b6040516060810167ffffffffffffffff8111828210171561102157611021610fe8565b60405290565b6040805190810167ffffffffffffffff8111828210171561102157611021610fe8565b604051601f8201601f1916810167ffffffffffffffff8111828210171561107357611073610fe8565b604052919050565b600082601f83011261108c57600080fd5b611094611027565b8060408401858111156110a657600080fd5b845b818110156110c05780358452602093840193016110a8565b509095945050505050565b600082601f8301126110dc57600080fd5b6110e4611027565b8060808401858111156110f657600080fd5b845b818110156110c05761110a878261107b565b84526020909301926040016110f8565b803561112581610faf565b919050565b6000806000808486036101a081121561114257600080fd5b6101008082121561115257600080fd5b61115a610ffe565b611164898961107b565b81526111738960408a016110cb565b60208201526111858960c08a0161107b565b60408201529550606060ff198301121561119e57600080fd5b6111a6610ffe565b9087013581526101208701356020820152610140870135604082015293506111d39050610160860161111a565b939692955092936101800135925050565b60008060008060006101e086880312156111fd57600080fd5b611207878761107b565b94506040611217888289016110cb565b94506112268860c089016110cb565b93506112368861014089016110cb565b92506101c087013567ffffffffffffffff8082111561125457600080fd5b818901915089601f83011261126857600080fd5b813560208282111561127c5761127c610fe8565b61128a818360051b0161104a565b828152818101935060069290921b84018101918c8311156112aa57600080fd5b938101935b828510156112d0576112c18d8661107b565b845293850193928101926112af565b809650505050505050929550929590935056fe30644e72e131a029b85045b68181585d97816a916871ca8d3c208c16d87cfd47a2646970667358221220ff1e7f1fe24e18fb821b01746de64e99960ae714b105285601acc43afdd1b5ff64736f6c63430008140033",
  "linkReferences": {},
  "deployedLinkReferences": {}
}