{"contracts/ZKPPrivacyContract.sol":{"ZKPPrivacyContract":{"abi":[{"inputs":[],"stateMutability":"nonpayable","type":"constructor"},{"inputs":[],"name":"EnforcedPause","type":"error"},{"inputs":[],"name":"ExpectedPause","type":"error"},{"inputs":[{"internalType":"address","name":"owner","type":"address"}],"name":"OwnableInvalidOwner","type":"error"},{"inputs":[{"internalType":"address","name":"account","type":"address"}],"name":"OwnableUnauthorizedAccount","type":"error"},{"inputs":[],"name":"ReentrancyGuardReentrantCall","type":"error"},{"anonymous":false,"inputs":[{"indexed":true,"internalType":"bytes32","name":"commitment","type":"bytes32"},{"indexed":false,"internalType":"uint256","name":"amount","type":"uint256"},{"indexed":false,"internalType":"uint256","name":"timestamp","type":"uint256"}],"name":"Deposit","type":"event"},{"anonymous":false,"inputs":[{"indexed":true,"internalType":"address","name":"previousOwner","type":"address"},{"indexed":true,"internalType":"address","name":"newOwner","type":"address"}],"name":"OwnershipTransferred","type":"event"},{"anonymous":false,"inputs":[{"indexed":false,"internalType":"address","name":"account","type":"address"}],"name":"Paused","type":"event"},{"anonymous":false,"inputs":[{"indexed":true,"internalType":"bytes32","name":"commitment","type":"bytes32"},{"indexed":true,"internalType":"bytes32","name":"nullifier","type":"bytes32"},{"indexed":false,"internalType":"uint256","name":"timestamp","type":"uint256"}],"name":"ProofVerified","type":"event"},{"anonymous":false,"inputs":[{"indexed":false,"internalType":"address","name":"account","type":"address"}],"name":"Unpaused","type":"event"},{"anonymous":false,"inputs":[{"indexed":true,"internalType":"bytes32","name":"nullifier","type":"bytes32"},{"indexed":true,"internalType":"address","name":"recipient","type":"address"},{"indexed":false,"internalType":"uint256","name":"amount","type":"uint256"},{"indexed":false,"internalType":"uint256","name":"timestamp","type":"uint256"}],"name":"Withdrawal","type":"event"},{"inputs":[],"name":"CURVE_ORDER","outputs":[{"internalType":"uint256","name":"","type":"uint256"}],"stateMutability":"view","type":"function"},{"inputs":[],"name":"FIELD_MODULUS","outputs":[{"internalType":"uint256","name":"","type":"uint256"}],"stateMutability":"view","type":"function"},{"inputs":[{"internalType":"address","name":"","type":"address"}],"name":"balances","outputs":[{"internalType":"uint256","name":"","type":"uint256"}],"stateMutability":"view","type":"function"},{"inputs":[{"internalType":"bytes32","name":"","type":"bytes32"}],"name":"commitments","outputs":[{"internalType":"bool","name":"","type":"bool"}],"stateMutability":"view","type":"function"},{"inputs":[{"internalType":"bytes32","name":"commitment","type":"bytes32"}],"name":"deposit","outputs":[],"stateMutability":"payable","type":"function"},{"inputs":[],"name":"emergencyWithdraw","outputs":[],"stateMutability":"nonpayable","type":"function"},{"inputs":[],"name":"getBalance","outputs":[{"internalType":"uint256","name":"","type":"uint256"}],"stateMutability":"view","type":"function"},{"inputs":[{"internalType":"bytes32","name":"commitment","type":"bytes32"}],"name":"isCommitmentUsed","outputs":[{"internalType":"bool","name":"","type":"bool"}],"stateMutability":"view","type":"function"},{"inputs":[{"internalType":"bytes32","name":"nullifier","type":"bytes32"}],"name":"isNullifierUsed","outputs":[{"internalType":"bool","name":"","type":"bool"}],"stateMutability":"view","type":"function"},{"inputs":[{"internalType":"bytes32","name":"","type":"bytes32"}],"name":"nullifiers","outputs":[{"internalType":"bool","name":"","type":"bool"}],"stateMutability":"view","type":"function"},{"inputs":[],"name":"owner","outputs":[{"internalType":"address","name":"","type":"address"}],"stateMutability":"view","type":"function"},{"inputs":[],"name":"pause","outputs":[],"stateMutability":"nonpayable","type":"function"},{"inputs":[],"name":"paused","outputs":[{"internalType":"bool","name":"","type":"bool"}],"stateMutability":"view","type":"function"},{"inputs":[],"name":"renounceOwnership","outputs":[],"stateMutability":"nonpayable","type":"function"},{"inputs":[{"internalType":"uint256[2]","name":"_alpha1","type":"uint256[2]"},{"internalType":"uint256[2][2]","name":"_beta2","type":"uint256[2][2]"},{"internalType":"uint256[2][2]","name":"_gamma2","type":"uint256[2][2]"},{"internalType":"uint256[2][2]","name":"_delta2","type":"uint256[2][2]"},{"internalType":"uint256[2][]","name":"_ic","type":"uint256[2][]"}],"name":"setVerificationKey","outputs":[],"stateMutability":"nonpayable","type":"function"},{"inputs":[{"internalType":"address","name":"newOwner","type":"address"}],"name":"transferOwnership","outputs":[],"stateMutability":"nonpayable","type":"function"},{"inputs":[],"name":"unpause","outputs":[],"stateMutability":"nonpayable","type":"function"},{"inputs":[],"name":"verificationKeySet","outputs":[{"internalType":"bool","name":"","type":"bool"}],"stateMutability":"view","type":"function"},{"inputs":[{"components":[{"internalType":"uint256[2]","name":"a","type":"uint256[2]"},{"internalType":"uint256[2][2]","name":"b","type":"uint256[2][2]"},{"internalType":"uint256[2]","name":"c","type":"uint256[2]"}],"internalType":"struct ZKPPrivacyContract.Proof","name":"proof","type":"tuple"},{"components":[{"internalType":"uint256","name":"commitment","type":"uint256"},{"internalType":"uint256","name":"nullifier","type":"uint256"},{"internalType":"uint256","name":"publicInput","type":"uint256"}],"internalType":"struct ZKPPrivacyContract.PublicInputs","name":"publicInputs","type":"tuple"},{"internalType":"address payable","name":"recipient","type":"address"},{"internalType":"uint256","name":"amount","type":"uint256"}],"name":"withdraw","outputs":[],"stateMutability":"nonpayable","type":"function"},{"stateMutability":"payable","type":"receive"}],"evm":{"bytecode":{"linkReferences":{},"object":"608060405234801561001057600080fd5b50338061003757604051631e4fbdf760e01b81526000600482015260240160405180910390fd5b6100408161004a565b506001805561009a565b600080546001600160a01b038381166001600160a01b0319831681178455604051919092169283917f8be0079c531659141344cd1fd0a4f28419497f9722a3daafe3b4186f6b6457e09190a35050565b611339806100a96000396000f3fe6080604052600436106101185760003560e01c806373913571116100a0578063b214faa511610064578063b214faa514610324578063b61b395c14610337578063bd17bac914610367578063db2e21bc14610387578063f2fde38b1461039c57600080fd5b8063739135711461026357806381cca3c114610283578063839df945146102b75780638456cb59146102e75780638da5cb5b146102fc57600080fd5b80632ed61014116100e75780632ed61014146101e35780633f4ba83a146101fd5780634f76a98e146102145780635c975abb14610236578063715018a61461024e57600080fd5b806312065fe01461012457806322dc7b4c1461014657806327e235e3146101865780632997e86b146101b357600080fd5b3661011f57005b600080fd5b34801561013057600080fd5b50475b6040519081526020015b60405180910390f35b34801561015257600080fd5b50610176610161366004610f96565b60009081526004602052604090205460ff1690565b604051901515815260200161013d565b34801561019257600080fd5b506101336101a1366004610fc4565b60056020526000908152604090205481565b3480156101bf57600080fd5b506101766101ce366004610f96565b60046020526000908152604090205460ff1681565b3480156101ef57600080fd5b506015546101769060ff1681565b34801561020957600080fd5b506102126103bc565b005b34801561022057600080fd5b506101336000805160206112e483398151915281565b34801561024257600080fd5b5060025460ff16610176565b34801561025a57600080fd5b506102126103ce565b34801561026f57600080fd5b5061021261027e36600461112a565b6103e0565b34801561028f57600080fd5b506101337f30644e72e131a029b85045b68181585d2833e84879b9709143e1f593f000000181565b3480156102c357600080fd5b506101766102d2366004610f96565b60036020526000908152604090205460ff1681565b3480156102f357600080fd5b5061021261071f565b34801561030857600080fd5b506000546040516001600160a01b03909116815260200161013d565b610212610332366004610f96565b61072f565b34801561034357600080fd5b50610176610352366004610f96565b60009081526003602052604090205460ff1690565b34801561037357600080fd5b506102126103823660046111e4565b61089a565b34801561039357600080fd5b50610212610941565b3480156103a857600080fd5b506102126103b7366004610fc4565b6109ec565b6103c4610a27565b6103cc610a54565b565b6103d6610a27565b6103cc6000610aa6565b6103e8610af6565b6103f0610b1a565b60155460ff166104475760405162461bcd60e51b815260206004820152601860248201527f566572696669636174696f6e206b6579206e6f7420736574000000000000000060448201526064015b60405180910390fd5b6001600160a01b0382166104915760405162461bcd60e51b8152602060048201526011602482015270125b9d985b1a59081c9958da5c1a595b9d607a1b604482015260640161043e565b600081116104e15760405162461bcd60e51b815260206004820152601d60248201527f416d6f756e74206d7573742062652067726561746572207468616e2030000000604482015260640161043e565b478111156105315760405162461bcd60e51b815260206004820152601d60248201527f496e73756666696369656e7420636f6e74726163742062616c616e6365000000604482015260640161043e565b60208084015160009081526004909152604090205460ff161561058f5760405162461bcd60e51b8152602060048201526016602482015275139d5b1b1a599a595c88185b1c9958591e481d5cd95960521b604482015260640161043e565b6105998484610b44565b6105d55760405162461bcd60e51b815260206004820152600d60248201526c24b73b30b634b210383937b7b360991b604482015260640161043e565b602083810151600090815260049091526040808220805460ff19166001179055516001600160a01b0384169083908381818185875af1925050503d806000811461063b576040519150601f19603f3d011682016040523d82523d6000602084013e610640565b606091505b50509050806106835760405162461bcd60e51b815260206004820152600f60248201526e151c985b9cd9995c8819985a5b1959608a1b604482015260640161043e565b6020808501516040805185815242938101939093526001600160a01b038616927f2865d567636cfb8b64e349af19627e3ef92dc0c2cabfe3b1fd3e659425938e8f910160405180910390a3602084015184516040517f5218389e256f588f1b0c542d774ec9ba39106830c105126b25a30eab96afa3be906107079042815260200190565b60405180910390a35061071960018055565b50505050565b610727610a27565b6103cc610d87565b610737610af6565b61073f610b1a565b6000341161078f5760405162461bcd60e51b815260206004820152601d60248201527f416d6f756e74206d7573742062652067726561746572207468616e2030000000604482015260640161043e565b60008181526003602052604090205460ff16156107ee5760405162461bcd60e51b815260206004820152601760248201527f436f6d6d69746d656e7420616c72656164792075736564000000000000000000604482015260640161043e565b806108305760405162461bcd60e51b8152602060048201526012602482015271125b9d985b1a590818dbdb5b5a5d1b595b9d60721b604482015260640161043e565b60008181526003602052604090819020805460ff191660011790555181907fe1f1096fd8bc7d572fb7ad7e4102736b6615500975c0252ea91ef1b765c49897906108869034904290918252602082015260400190565b60405180910390a261089760018055565b50565b6108a2610a27565b6108af6006866002610e98565b506108bd6008856002610ed6565b506108cb600c846002610ed6565b506108d96010836002610ed6565b5080516108ed906014906020840190610f1d565b506015805460ff1916600117905560405160009081907f5218389e256f588f1b0c542d774ec9ba39106830c105126b25a30eab96afa3be906109329042815260200190565b60405180910390a35050505050565b610949610a27565b600080546040516001600160a01b039091169047908381818185875af1925050503d8060008114610996576040519150601f19603f3d011682016040523d82523d6000602084013e61099b565b606091505b50509050806108975760405162461bcd60e51b815260206004820152601b60248201527f456d657267656e6379207769746864726177616c206661696c65640000000000604482015260640161043e565b6109f4610a27565b6001600160a01b038116610a1e57604051631e4fbdf760e01b81526000600482015260240161043e565b61089781610aa6565b6000546001600160a01b031633146103cc5760405163118cdaa760e01b815233600482015260240161043e565b610a5c610dc4565b6002805460ff191690557f5db9ee0a495bf2e6ff9c91a7834c1ba4fdd244a5e8aa4e537bd38aeae4b073aa335b6040516001600160a01b03909116815260200160405180910390a1565b600080546001600160a01b038381166001600160a01b0319831681178455604051919092169283917f8be0079c531659141344cd1fd0a4f28419497f9722a3daafe3b4186f6b6457e09190a35050565b60025460ff16156103cc5760405163d93c066560e01b815260040160405180910390fd5b600260015403610b3d57604051633ee5aeb560e01b815260040160405180910390fd5b6002600155565b6000610b538360000151610de7565b610b915760405162461bcd60e51b815260206004820152600f60248201526e496e76616c69642070726f6f662e6160881b604482015260640161043e565b610b9e8360400151610de7565b610bdc5760405162461bcd60e51b815260206004820152600f60248201526e496e76616c69642070726f6f662e6360881b604482015260640161043e565b610be98360200151610e23565b610c275760405162461bcd60e51b815260206004820152600f60248201526e24b73b30b634b210383937b7b3173160891b604482015260640161043e565b81516000805160206112e483398151915211610c7a5760405162461bcd60e51b8152602060048201526012602482015271125b9d985b1a590818dbdb5b5a5d1b595b9d60721b604482015260640161043e565b6000805160206112e4833981519152826020015110610ccf5760405162461bcd60e51b815260206004820152601160248201527024b73b30b634b210373ab63634b334b2b960791b604482015260640161043e565b6000805160206112e4833981519152826040015110610d275760405162461bcd60e51b8152602060048201526014602482015273125b9d985b1a59081c1d589b1a58c81a5b9c1d5d60621b604482015260640161043e565b815160009081526003602052604090205460ff16610d7e5760405162461bcd60e51b815260206004820152601460248201527310dbdb5b5a5d1b595b9d081b9bdd08199bdd5b9960621b604482015260640161043e565b50600192915050565b610d8f610af6565b6002805460ff191660011790557f62e78cea01bee320cd4e420270b5ea74000d11b0c9f74754ebdbfc544b05a258610a893390565b60025460ff166103cc57604051638dfc202b60e01b815260040160405180910390fd5b80516000906000805160206112e4833981519152118015610e1d57506000805160206112e48339815191528260015b6020020151105b92915050565b8051516000906000805160206112e4833981519152118015610e5757508151602001516000805160206112e4833981519152115b8015610e7557506020820151516000805160206112e4833981519152115b8015610e1d575060208201516000805160206112e4833981519152906001610e16565b8260028101928215610ec6579160200282015b82811115610ec6578251825591602001919060010190610eab565b50610ed2929150610f67565b5090565b600483019183908215610f11579160200282015b82811115610f11578251610f019083906002610e98565b5091602001919060020190610eea565b50610ed2929150610f7c565b828054828255906000526020600020906002028101928215610f11579160200282015b82811115610f11578251610f579083906002610e98565b5091602001919060020190610f40565b5b80821115610ed25760008155600101610f68565b80821115610ed25760008082556001820155600201610f7c565b600060208284031215610fa857600080fd5b5035919050565b6001600160a01b038116811461089757600080fd5b600060208284031215610fd657600080fd5b8135610fe181610faf565b9392505050565b634e487b7160e01b600052604160045260246000fd5b6040516060810167ffffffffffffffff8111828210171561102157611021610fe8565b60405290565b6040805190810167ffffffffffffffff8111828210171561102157611021610fe8565b604051601f8201601f1916810167ffffffffffffffff8111828210171561107357611073610fe8565b604052919050565b600082601f83011261108c57600080fd5b611094611027565b8060408401858111156110a657600080fd5b845b818110156110c05780358452602093840193016110a8565b509095945050505050565b600082601f8301126110dc57600080fd5b6110e4611027565b8060808401858111156110f657600080fd5b845b818110156110c05761110a878261107b565b84526020909301926040016110f8565b803561112581610faf565b919050565b6000806000808486036101a081121561114257600080fd5b6101008082121561115257600080fd5b61115a610ffe565b611164898961107b565b81526111738960408a016110cb565b60208201526111858960c08a0161107b565b60408201529550606060ff198301121561119e57600080fd5b6111a6610ffe565b9087013581526101208701356020820152610140870135604082015293506111d39050610160860161111a565b939692955092936101800135925050565b60008060008060006101e086880312156111fd57600080fd5b611207878761107b565b94506040611217888289016110cb565b94506112268860c089016110cb565b93506112368861014089016110cb565b92506101c087013567ffffffffffffffff8082111561125457600080fd5b818901915089601f83011261126857600080fd5b813560208282111561127c5761127c610fe8565b61128a818360051b0161104a565b828152818101935060069290921b84018101918c8311156112aa57600080fd5b938101935b828510156112d0576112c18d8661107b565b845293850193928101926112af565b809650505050505050929550929590935056fe30644e72e131a029b85045b68181585d97816a916871ca8d3c208c16d87cfd47a2646970667358221220ff1e7f1fe24e18fb821b01746de64e99960ae714b105285601acc43afdd1b5ff64736f6c63430008140033","opcodes":"PUSH1 0x80 PUSH1 0x40 MSTORE CALLVALUE DUP1 ISZERO PUSH2 0x10 JUMPI PUSH1 0x0 DUP1 REVERT JUMPDEST POP CALLER DUP1 PUSH2 0x37 JUMPI PUSH1 0x40 MLOAD PUSH4 0x1E4FBDF7 PUSH1 0xE0 SHL DUP2 MSTORE PUSH1 0x0 PUSH1 0x4 DUP3 ADD MSTORE PUSH1 0x24 ADD PUSH1 0x40 MLOAD DUP1 SWAP2 SUB SWAP1 REVERT JUMPDEST PUSH2 0x40 DUP2 PUSH2 0x4A JUMP JUMPDEST POP PUSH1 0x1 DUP1 SSTORE PUSH2 0x9A JUMP JUMPDEST PUSH1 0x0 DUP1 SLOAD PUSH1 0x1 PUSH1 0x1 PUSH1 0xA0 SHL SUB DUP4 DUP2 AND PUSH1 0x1 PUSH1 0x1 PUSH1 0xA0 SHL SUB NOT DUP4 AND DUP2 OR DUP5 SSTORE PUSH1 0x40 MLOAD SWAP2 SWAP1 SWAP3 AND SWAP3 DUP4 SWAP2 PUSH32 0x8BE0079C531659141344CD1FD0A4F28419497F9722A3DAAFE3B4186F6B6457E0 SWAP2 SWAP1 LOG3 POP POP JUMP JUMPDEST PUSH2 0x1339 DUP1 PUSH2 0xA9 PUSH1 0x0 CODECOPY PUSH1 0x0 RETURN INVALID PUSH1 0x80 PUSH1 0x40 MSTORE PUSH1 0x4 CALLDATASIZE LT PUSH2 0x118 JUMPI PUSH1 0x0 CALLDATALOAD PUSH1 0xE0 SHR DUP1 PUSH4 0x73913571 GT PUSH2 0xA0 JUMPI DUP1 PUSH4 0xB214FAA5 GT PUSH2 0x64 JUMPI DUP1 PUSH4 0xB214FAA5 EQ PUSH2 0x324 JUMPI DUP1 PUSH4 0xB61B395C EQ PUSH2 0x337 JUMPI DUP1 PUSH4 0xBD17BAC9 EQ PUSH2 0x367 JUMPI DUP1 PUSH4 0xDB2E21BC EQ PUSH2 0x387 JUMPI DUP1 PUSH4 0xF2FDE38B EQ PUSH2 0x39C JUMPI PUSH1 0x0 DUP1 REVERT JUMPDEST DUP1 PUSH4 0x73913571 EQ PUSH2 0x263 JUMPI DUP1 PUSH4 0x81CCA3C1 EQ PUSH2 0x283 JUMPI DUP1 PUSH4 0x839DF945 EQ PUSH2 0x2B7 JUMPI DUP1 PUSH4 0x8456CB59 EQ PUSH2 0x2E7 JUMPI DUP1 PUSH4 0x8DA5CB5B EQ PUSH2 0x2FC JUMPI PUSH1 0x0 DUP1 REVERT JUMPDEST DUP1 PUSH4 0x2ED61014 GT PUSH2 0xE7 JUMPI DUP1 PUSH4 0x2ED61014 EQ PUSH2 0x1E3 JUMPI DUP1 PUSH4 0x3F4BA83A EQ PUSH2 0x1FD JUMPI DUP1 PUSH4 0x4F76A98E EQ PUSH2 0x214 JUMPI DUP1 PUSH4 0x5C975ABB EQ PUSH2 0x236 JUMPI DUP1 PUSH4 0x715018A6 EQ PUSH2 0x24E JUMPI PUSH1 0x0 DUP1 REVERT JUMPDEST DUP1 PUSH4 0x12065FE0 EQ PUSH2 0x124 JUMPI DUP1 PUSH4 0x22DC7B4C EQ PUSH2 0x146 JUMPI DUP1 PUSH4 0x27E235E3 EQ PUSH2 0x186 JUMPI DUP1 PUSH4 0x2997E86B EQ PUSH2 0x1B3 JUMPI PUSH1 0x0 DUP1 REVERT JUMPDEST CALLDATASIZE PUSH2 0x11F JUMPI STOP JUMPDEST PUSH1 0x0 DUP1 REVERT JUMPDEST CALLVALUE DUP1 ISZERO PUSH2 0x130 JUMPI PUSH1 0x0 DUP1 REVERT JUMPDEST POP SELFBALANCE JUMPDEST PUSH1 0x40 MLOAD SWAP1 DUP2 MSTORE PUSH1 0x20 ADD JUMPDEST PUSH1 0x40 MLOAD DUP1 SWAP2 SUB SWAP1 RETURN JUMPDEST CALLVALUE DUP1 ISZERO PUSH2 0x152 JUMPI PUSH1 0x0 DUP1 REVERT JUMPDEST POP PUSH2 0x176 PUSH2 0x161 CALLDATASIZE PUSH1 0x4 PUSH2 0xF96 JUMP JUMPDEST PUSH1 0x0 SWAP1 DUP2 MSTORE PUSH1 0x4 PUSH1 0x20 MSTORE PUSH1 0x40 SWAP1 KECCAK256 SLOAD PUSH1 0xFF AND SWAP1 JUMP JUMPDEST PUSH1 0x40 MLOAD SWAP1 ISZERO ISZERO DUP2 MSTORE PUSH1 0x20 ADD PUSH2 0x13D JUMP JUMPDEST CALLVALUE DUP1 ISZERO PUSH2 0x192 JUMPI PUSH1 0x0 DUP1 REVERT JUMPDEST POP PUSH2 0x133 PUSH2 0x1A1 CALLDATASIZE PUSH1 0x4 PUSH2 0xFC4 JUMP JUMPDEST PUSH1 0x5 PUSH1 0x20 MSTORE PUSH1 0x0 SWAP1 DUP2 MSTORE PUSH1 0x40 SWAP1 KECCAK256 SLOAD DUP2 JUMP JUMPDEST CALLVALUE DUP1 ISZERO PUSH2 0x1BF JUMPI PUSH1 0x0 DUP1 REVERT JUMPDEST POP PUSH2 0x176 PUSH2 0x1CE CALLDATASIZE PUSH1 0x4 PUSH2 0xF96 JUMP JUMPDEST PUSH1 0x4 PUSH1 0x20 MSTORE PUSH1 0x0 SWAP1 DUP2 MSTORE PUSH1 0x40 SWAP1 KECCAK256 SLOAD PUSH1 0xFF AND DUP2 JUMP JUMPDEST CALLVALUE DUP1 ISZERO PUSH2 0x1EF JUMPI PUSH1 0x0 DUP1 REVERT JUMPDEST POP PUSH1 0x15 SLOAD PUSH2 0x176 SWAP1 PUSH1 0xFF AND DUP2 JUMP JUMPDEST CALLVALUE DUP1 ISZERO PUSH2 0x209 JUMPI PUSH1 0x0 DUP1 REVERT JUMPDEST POP PUSH2 0x212 PUSH2 0x3BC JUMP JUMPDEST STOP JUMPDEST CALLVALUE DUP1 ISZERO PUSH2 0x220 JUMPI PUSH1 0x0 DUP1 REVERT JUMPDEST POP PUSH2 0x133 PUSH1 0x0 DUP1 MLOAD PUSH1 0x20 PUSH2 0x12E4 DUP4 CODECOPY DUP2 MLOAD SWAP2 MSTORE DUP2 JUMP JUMPDEST CALLVALUE DUP1 ISZERO PUSH2 0x242 JUMPI PUSH1 0x0 DUP1 REVERT JUMPDEST POP PUSH1 0x2 SLOAD PUSH1 0xFF AND PUSH2 0x176 JUMP JUMPDEST CALLVALUE DUP1 ISZERO PUSH2 0x25A JUMPI PUSH1 0x0 DUP1 REVERT JUMPDEST POP PUSH2 0x212 PUSH2 0x3CE JUMP JUMPDEST CALLVALUE DUP1 ISZERO PUSH2 0x26F JUMPI PUSH1 0x0 DUP1 REVERT JUMPDEST POP PUSH2 0x212 PUSH2 0x27E CALLDATASIZE PUSH1 0x4 PUSH2 0x112A JUMP JUMPDEST PUSH2 0x3E0 JUMP JUMPDEST CALLVALUE DUP1 ISZERO PUSH2 0x28F JUMPI PUSH1 0x0 DUP1 REVERT JUMPDEST POP PUSH2 0x133 PUSH32 0x30644E72E131A029B85045B68181585D2833E84879B9709143E1F593F0000001 DUP2 JUMP JUMPDEST CALLVALUE DUP1 ISZERO PUSH2 0x2C3 JUMPI PUSH1 0x0 DUP1 REVERT JUMPDEST POP PUSH2 0x176 PUSH2 0x2D2 CALLDATASIZE PUSH1 0x4 PUSH2 0xF96 JUMP JUMPDEST PUSH1 0x3 PUSH1 0x20 MSTORE PUSH1 0x0 SWAP1 DUP2 MSTORE PUSH1 0x40 SWAP1 KECCAK256 SLOAD PUSH1 0xFF AND DUP2 JUMP JUMPDEST CALLVALUE DUP1 ISZERO PUSH2 0x2F3 JUMPI PUSH1 0x0 DUP1 REVERT JUMPDEST POP PUSH2 0x212 PUSH2 0x71F JUMP JUMPDEST CALLVALUE DUP1 ISZERO PUSH2 0x308 JUMPI PUSH1 0x0 DUP1 REVERT JUMPDEST POP PUSH1 0x0 SLOAD PUSH1 0x40 MLOAD PUSH1 0x1 PUSH1 0x1 PUSH1 0xA0 SHL SUB SWAP1 SWAP2 AND DUP2 MSTORE PUSH1 0x20 ADD PUSH2 0x13D JUMP JUMPDEST PUSH2 0x212 PUSH2 0x332 CALLDATASIZE PUSH1 0x4 PUSH2 0xF96 JUMP JUMPDEST PUSH2 0x72F JUMP JUMPDEST CALLVALUE DUP1 ISZERO PUSH2 0x343 JUMPI PUSH1 0x0 DUP1 REVERT JUMPDEST POP PUSH2 0x176 PUSH2 0x352 CALLDATASIZE PUSH1 0x4 PUSH2 0xF96 JUMP JUMPDEST PUSH1 0x0 SWAP1 DUP2 MSTORE PUSH1 0x3 PUSH1 0x20 MSTORE PUSH1 0x40 SWAP1 KECCAK256 SLOAD PUSH1 0xFF AND SWAP1 JUMP JUMPDEST CALLVALUE DUP1 ISZERO PUSH2 0x373 JUMPI PUSH1 0x0 DUP1 REVERT JUMPDEST POP PUSH2 0x212 PUSH2 0x382 CALLDATASIZE PUSH1 0x4 PUSH2 0x11E4 JUMP JUMPDEST PUSH2 0x89A JUMP JUMPDEST CALLVALUE DUP1 ISZERO PUSH2 0x393 JUMPI PUSH1 0x0 DUP1 REVERT JUMPDEST POP PUSH2 0x212 PUSH2 0x941 JUMP JUMPDEST CALLVALUE DUP1 ISZERO PUSH2 0x3A8 JUMPI PUSH1 0x0 DUP1 REVERT JUMPDEST POP PUSH2 0x212 PUSH2 0x3B7 CALLDATASIZE PUSH1 0x4 PUSH2 0xFC4 JUMP JUMPDEST PUSH2 0x9EC JUMP JUMPDEST PUSH2 0x3C4 PUSH2 0xA27 JUMP JUMPDEST PUSH2 0x3CC PUSH2 0xA54 JUMP JUMPDEST JUMP JUMPDEST PUSH2 0x3D6 PUSH2 0xA27 JUMP JUMPDEST PUSH2 0x3CC PUSH1 0x0 PUSH2 0xAA6 JUMP JUMPDEST PUSH2 0x3E8 PUSH2 0xAF6 JUMP JUMPDEST PUSH2 0x3F0 PUSH2 0xB1A JUMP JUMPDEST PUSH1 0x15 SLOAD PUSH1 0xFF AND PUSH2 0x447 JUMPI PUSH1 0x40 MLOAD PUSH3 0x461BCD PUSH1 0xE5 SHL DUP2 MSTORE PUSH1 0x20 PUSH1 0x4 DUP3 ADD MSTORE PUSH1 0x18 PUSH1 0x24 DUP3 ADD MSTORE PUSH32 0x566572696669636174696F6E206B6579206E6F74207365740000000000000000 PUSH1 0x44 DUP3 ADD MSTORE PUSH1 0x64 ADD JUMPDEST PUSH1 0x40 MLOAD DUP1 SWAP2 SUB SWAP1 REVERT JUMPDEST PUSH1 0x1 PUSH1 0x1 PUSH1 0xA0 SHL SUB DUP3 AND PUSH2 0x491 JUMPI PUSH1 0x40 MLOAD PUSH3 0x461BCD PUSH1 0xE5 SHL DUP2 MSTORE PUSH1 0x20 PUSH1 0x4 DUP3 ADD MSTORE PUSH1 0x11 PUSH1 0x24 DUP3 ADD MSTORE PUSH17 0x125B9D985B1A59081C9958DA5C1A595B9D PUSH1 0x7A SHL PUSH1 0x44 DUP3 ADD MSTORE PUSH1 0x64 ADD PUSH2 0x43E JUMP JUMPDEST PUSH1 0x0 DUP2 GT PUSH2 0x4E1 JUMPI PUSH1 0x40 MLOAD PUSH3 0x461BCD PUSH1 0xE5 SHL DUP2 MSTORE PUSH1 0x20 PUSH1 0x4 DUP3 ADD MSTORE PUSH1 0x1D PUSH1 0x24 DUP3 ADD MSTORE PUSH32 0x416D6F756E74206D7573742062652067726561746572207468616E2030000000 PUSH1 0x44 DUP3 ADD MSTORE PUSH1 0x64 ADD PUSH2 0x43E JUMP JUMPDEST SELFBALANCE DUP2 GT ISZERO PUSH2 0x531 JUMPI PUSH1 0x40 MLOAD PUSH3 0x461BCD PUSH1 0xE5 SHL DUP2 MSTORE PUSH1 0x20 PUSH1 0x4 DUP3 ADD MSTORE PUSH1 0x1D PUSH1 0x24 DUP3 ADD MSTORE PUSH32 0x496E73756666696369656E7420636F6E74726163742062616C616E6365000000 PUSH1 0x44 DUP3 ADD MSTORE PUSH1 0x64 ADD PUSH2 0x43E JUMP JUMPDEST PUSH1 0x20 DUP1 DUP5 ADD MLOAD PUSH1 0x0 SWAP1 DUP2 MSTORE PUSH1 0x4 SWAP1 SWAP2 MSTORE PUSH1 0x40 SWAP1 KECCAK256 SLOAD PUSH1 0xFF AND ISZERO PUSH2 0x58F JUMPI PUSH1 0x40 MLOAD PUSH3 0x461BCD PUSH1 0xE5 SHL DUP2 MSTORE PUSH1 0x20 PUSH1 0x4 DUP3 ADD MSTORE PUSH1 0x16 PUSH1 0x24 DUP3 ADD MSTORE PUSH22 0x139D5B1B1A599A595C88185B1C9958591E481D5CD959 PUSH1 0x52 SHL PUSH1 0x44 DUP3 ADD MSTORE PUSH1 0x64 ADD PUSH2 0x43E JUMP JUMPDEST PUSH2 0x599 DUP5 DUP5 PUSH2 0xB44 JUMP JUMPDEST PUSH2 0x5D5 JUMPI PUSH1 0x40 MLOAD PUSH3 0x461BCD PUSH1 0xE5 SHL DUP2 MSTORE PUSH1 0x20 PUSH1 0x4 DUP3 ADD MSTORE PUSH1 0xD PUSH1 0x24 DUP3 ADD MSTORE PUSH13 0x24B73B30B634B210383937B7B3 PUSH1 0x99 SHL PUSH1 0x44 DUP3 ADD MSTORE PUSH1 0x64 ADD PUSH2 0x43E JUMP JUMPDEST PUSH1 0x20 DUP4 DUP2 ADD MLOAD PUSH1 0x0 SWAP1 DUP2 MSTORE PUSH1 0x4 SWAP1 SWAP2 MSTORE PUSH1 0x40 DUP1 DUP3 KECCAK256 DUP1 SLOAD PUSH1 0xFF NOT AND PUSH1 0x1 OR SWAP1 SSTORE MLOAD PUSH1 0x1 PUSH1 0x1 PUSH1 0xA0 SHL SUB DUP5 AND SWAP1 DUP4 SWAP1 DUP4 DUP2 DUP2 DUP2 DUP6 DUP8 GAS CALL SWAP3 POP POP POP RETURNDATASIZE DUP1 PUSH1 0x0 DUP2 EQ PUSH2 0x63B JUMPI PUSH1 0x40 MLOAD SWAP2 POP PUSH1 0x1F NOT PUSH1 0x3F RETURNDATASIZE ADD AND DUP3 ADD PUSH1 0x40 MSTORE RETURNDATASIZE DUP3 MSTORE RETURNDATASIZE PUSH1 0x0 PUSH1 0x20 DUP5 ADD RETURNDATACOPY PUSH2 0x640 JUMP JUMPDEST PUSH1 0x60 SWAP2 POP JUMPDEST POP POP SWAP1 POP DUP1 PUSH2 0x683 JUMPI PUSH1 0x40 MLOAD PUSH3 0x461BCD PUSH1 0xE5 SHL DUP2 MSTORE PUSH1 0x20 PUSH1 0x4 DUP3 ADD MSTORE PUSH1 0xF PUSH1 0x24 DUP3 ADD MSTORE PUSH15 0x151C985B9CD9995C8819985A5B1959 PUSH1 0x8A SHL PUSH1 0x44 DUP3 ADD MSTORE PUSH1 0x64 ADD PUSH2 0x43E JUMP JUMPDEST PUSH1 0x20 DUP1 DUP6 ADD MLOAD PUSH1 0x40 DUP1 MLOAD DUP6 DUP2 MSTORE TIMESTAMP SWAP4 DUP2 ADD SWAP4 SWAP1 SWAP4 MSTORE PUSH1 0x1 PUSH1 0x1 PUSH1 0xA0 SHL SUB DUP7 AND SWAP3 PUSH32 0x2865D567636CFB8B64E349AF19627E3EF92DC0C2CABFE3B1FD3E659425938E8F SWAP2 ADD PUSH1 0x40 MLOAD DUP1 SWAP2 SUB SWAP1 LOG3 PUSH1 0x20 DUP5 ADD MLOAD DUP5 MLOAD PUSH1 0x40 MLOAD PUSH32 0x5218389E256F588F1B0C542D774EC9BA39106830C105126B25A30EAB96AFA3BE SWAP1 PUSH2 0x707 SWAP1 TIMESTAMP DUP2 MSTORE PUSH1 0x20 ADD SWAP1 JUMP JUMPDEST PUSH1 0x40 MLOAD DUP1 SWAP2 SUB SWAP1 LOG3 POP PUSH2 0x719 PUSH1 0x1 DUP1 SSTORE JUMP JUMPDEST POP POP POP POP JUMP JUMPDEST PUSH2 0x727 PUSH2 0xA27 JUMP JUMPDEST PUSH2 0x3CC PUSH2 0xD87 JUMP JUMPDEST PUSH2 0x737 PUSH2 0xAF6 JUMP JUMPDEST PUSH2 0x73F PUSH2 0xB1A JUMP JUMPDEST PUSH1 0x0 CALLVALUE GT PUSH2 0x78F JUMPI PUSH1 0x40 MLOAD PUSH3 0x461BCD PUSH1 0xE5 SHL DUP2 MSTORE PUSH1 0x20 PUSH1 0x4 DUP3 ADD MSTORE PUSH1 0x1D PUSH1 0x24 DUP3 ADD MSTORE PUSH32 0x416D6F756E74206D7573742062652067726561746572207468616E2030000000 PUSH1 0x44 DUP3 ADD MSTORE PUSH1 0x64 ADD PUSH2 0x43E JUMP JUMPDEST PUSH1 0x0 DUP2 DUP2 MSTORE PUSH1 0x3 PUSH1 0x20 MSTORE PUSH1 0x40 SWAP1 KECCAK256 SLOAD PUSH1 0xFF AND ISZERO PUSH2 0x7EE JUMPI PUSH1 0x40 MLOAD PUSH3 0x461BCD PUSH1 0xE5 SHL DUP2 MSTORE PUSH1 0x20 PUSH1 0x4 DUP3 ADD MSTORE PUSH1 0x17 PUSH1 0x24 DUP3 ADD MSTORE PUSH32 0x436F6D6D69746D656E7420616C72656164792075736564000000000000000000 PUSH1 0x44 DUP3 ADD MSTORE PUSH1 0x64 ADD PUSH2 0x43E JUMP JUMPDEST DUP1 PUSH2 0x830 JUMPI PUSH1 0x40 MLOAD PUSH3 0x461BCD PUSH1 0xE5 SHL DUP2 MSTORE PUSH1 0x20 PUSH1 0x4 DUP3 ADD MSTORE PUSH1 0x12 PUSH1 0x24 DUP3 ADD MSTORE PUSH18 0x125B9D985B1A590818DBDB5B5A5D1B595B9D PUSH1 0x72 SHL PUSH1 0x44 DUP3 ADD MSTORE PUSH1 0x64 ADD PUSH2 0x43E JUMP JUMPDEST PUSH1 0x0 DUP2 DUP2 MSTORE PUSH1 0x3 PUSH1 0x20 MSTORE PUSH1 0x40 SWAP1 DUP2 SWAP1 KECCAK256 DUP1 SLOAD PUSH1 0xFF NOT AND PUSH1 0x1 OR SWAP1 SSTORE MLOAD DUP2 SWAP1 PUSH32 0xE1F1096FD8BC7D572FB7AD7E4102736B6615500975C0252EA91EF1B765C49897 SWAP1 PUSH2 0x886 SWAP1 CALLVALUE SWAP1 TIMESTAMP SWAP1 SWAP2 DUP3 MSTORE PUSH1 0x20 DUP3 ADD MSTORE PUSH1 0x40 ADD SWAP1 JUMP JUMPDEST PUSH1 0x40 MLOAD DUP1 SWAP2 SUB SWAP1 LOG2 PUSH2 0x897 PUSH1 0x1 DUP1 SSTORE JUMP JUMPDEST POP JUMP JUMPDEST PUSH2 0x8A2 PUSH2 0xA27 JUMP JUMPDEST PUSH2 0x8AF PUSH1 0x6 DUP7 PUSH1 0x2 PUSH2 0xE98 JUMP JUMPDEST POP PUSH2 0x8BD PUSH1 0x8 DUP6 PUSH1 0x2 PUSH2 0xED6 JUMP JUMPDEST POP PUSH2 0x8CB PUSH1 0xC DUP5 PUSH1 0x2 PUSH2 0xED6 JUMP JUMPDEST POP PUSH2 0x8D9 PUSH1 0x10 DUP4 PUSH1 0x2 PUSH2 0xED6 JUMP JUMPDEST POP DUP1 MLOAD PUSH2 0x8ED SWAP1 PUSH1 0x14 SWAP1 PUSH1 0x20 DUP5 ADD SWAP1 PUSH2 0xF1D JUMP JUMPDEST POP PUSH1 0x15 DUP1 SLOAD PUSH1 0xFF NOT AND PUSH1 0x1 OR SWAP1 SSTORE PUSH1 0x40 MLOAD PUSH1 0x0 SWAP1 DUP2 SWAP1 PUSH32 0x5218389E256F588F1B0C542D774EC9BA39106830C105126B25A30EAB96AFA3BE SWAP1 PUSH2 0x932 SWAP1 TIMESTAMP DUP2 MSTORE PUSH1 0x20 ADD SWAP1 JUMP JUMPDEST PUSH1 0x40 MLOAD DUP1 SWAP2 SUB SWAP1 LOG3 POP POP POP POP POP JUMP JUMPDEST PUSH2 0x949 PUSH2 0xA27 JUMP JUMPDEST PUSH1 0x0 DUP1 SLOAD PUSH1 0x40 MLOAD PUSH1 0x1 PUSH1 0x1 PUSH1 0xA0 SHL SUB SWAP1 SWAP2 AND SWAP1 SELFBALANCE SWAP1 DUP4 DUP2 DUP2 DUP2 DUP6 DUP8 GAS CALL SWAP3 POP POP POP RETURNDATASIZE DUP1 PUSH1 0x0 DUP2 EQ PUSH2 0x996 JUMPI PUSH1 0x40 MLOAD SWAP2 POP PUSH1 0x1F NOT PUSH1 0x3F RETURNDATASIZE ADD AND DUP3 ADD PUSH1 0x40 MSTORE RETURNDATASIZE DUP3 MSTORE RETURNDATASIZE PUSH1 0x0 PUSH1 0x20 DUP5 ADD RETURNDATACOPY PUSH2 0x99B JUMP JUMPDEST PUSH1 0x60 SWAP2 POP JUMPDEST POP POP SWAP1 POP DUP1 PUSH2 0x897 JUMPI PUSH1 0x40 MLOAD PUSH3 0x461BCD PUSH1 0xE5 SHL DUP2 MSTORE PUSH1 0x20 PUSH1 0x4 DUP3 ADD MSTORE PUSH1 0x1B PUSH1 0x24 DUP3 ADD MSTORE PUSH32 0x456D657267656E6379207769746864726177616C206661696C65640000000000 PUSH1 0x44 DUP3 ADD MSTORE PUSH1 0x64 ADD PUSH2 0x43E JUMP JUMPDEST PUSH2 0x9F4 PUSH2 0xA27 JUMP JUMPDEST PUSH1 0x1 PUSH1 0x1 PUSH1 0xA0 SHL SUB DUP2 AND PUSH2 0xA1E JUMPI PUSH1 0x40 MLOAD PUSH4 0x1E4FBDF7 PUSH1 0xE0 SHL DUP2 MSTORE PUSH1 0x0 PUSH1 0x4 DUP3 ADD MSTORE PUSH1 0x24 ADD PUSH2 0x43E JUMP JUMPDEST PUSH2 0x897 DUP2 PUSH2 0xAA6 JUMP JUMPDEST PUSH1 0x0 SLOAD PUSH1 0x1 PUSH1 0x1 PUSH1 0xA0 SHL SUB AND CALLER EQ PUSH2 0x3CC JUMPI PUSH1 0x40 MLOAD PUSH4 0x118CDAA7 PUSH1 0xE0 SHL DUP2 MSTORE CALLER PUSH1 0x4 DUP3 ADD MSTORE PUSH1 0x24 ADD PUSH2 0x43E JUMP JUMPDEST PUSH2 0xA5C PUSH2 0xDC4 JUMP JUMPDEST PUSH1 0x2 DUP1 SLOAD PUSH1 0xFF NOT AND SWAP1 SSTORE PUSH32 0x5DB9EE0A495BF2E6FF9C91A7834C1BA4FDD244A5E8AA4E537BD38AEAE4B073AA CALLER JUMPDEST PUSH1 0x40 MLOAD PUSH1 0x1 PUSH1 0x1 PUSH1 0xA0 SHL SUB SWAP1 SWAP2 AND DUP2 MSTORE PUSH1 0x20 ADD PUSH1 0x40 MLOAD DUP1 SWAP2 SUB SWAP1 LOG1 JUMP JUMPDEST PUSH1 0x0 DUP1 SLOAD PUSH1 0x1 PUSH1 0x1 PUSH1 0xA0 SHL SUB DUP4 DUP2 AND PUSH1 0x1 PUSH1 0x1 PUSH1 0xA0 SHL SUB NOT DUP4 AND DUP2 OR DUP5 SSTORE PUSH1 0x40 MLOAD SWAP2 SWAP1 SWAP3 AND SWAP3 DUP4 SWAP2 PUSH32 0x8BE0079C531659141344CD1FD0A4F28419497F9722A3DAAFE3B4186F6B6457E0 SWAP2 SWAP1 LOG3 POP POP JUMP JUMPDEST PUSH1 0x2 SLOAD PUSH1 0xFF AND ISZERO PUSH2 0x3CC JUMPI PUSH1 0x40 MLOAD PUSH4 0xD93C0665 PUSH1 0xE0 SHL DUP2 MSTORE PUSH1 0x4 ADD PUSH1 0x40 MLOAD DUP1 SWAP2 SUB SWAP1 REVERT JUMPDEST PUSH1 0x2 PUSH1 0x1 SLOAD SUB PUSH2 0xB3D JUMPI PUSH1 0x40 MLOAD PUSH4 0x3EE5AEB5 PUSH1 0xE0 SHL DUP2 MSTORE PUSH1 0x4 ADD PUSH1 0x40 MLOAD DUP1 SWAP2 SUB SWAP1 REVERT JUMPDEST PUSH1 0x2 PUSH1 0x1 SSTORE JUMP JUMPDEST PUSH1 0x0 PUSH2 0xB53 DUP4 PUSH1 0x0 ADD MLOAD PUSH2 0xDE7 JUMP JUMPDEST PUSH2 0xB91 JUMPI PUSH1 0x40 MLOAD PUSH3 0x461BCD PUSH1 0xE5 SHL DUP2 MSTORE PUSH1 0x20 PUSH1 0x4 DUP3 ADD MSTORE PUSH1 0xF PUSH1 0x24 DUP3 ADD MSTORE PUSH15 0x496E76616C69642070726F6F662E61 PUSH1 0x88 SHL PUSH1 0x44 DUP3 ADD MSTORE PUSH1 0x64 ADD PUSH2 0x43E JUMP JUMPDEST PUSH2 0xB9E DUP4 PUSH1 0x40 ADD MLOAD PUSH2 0xDE7 JUMP JUMPDEST PUSH2 0xBDC JUMPI PUSH1 0x40 MLOAD PUSH3 0x461BCD PUSH1 0xE5 SHL DUP2 MSTORE PUSH1 0x20 PUSH1 0x4 DUP3 ADD MSTORE PUSH1 0xF PUSH1 0x24 DUP3 ADD MSTORE PUSH15 0x496E76616C69642070726F6F662E63 PUSH1 0x88 SHL PUSH1 0x44 DUP3 ADD MSTORE PUSH1 0x64 ADD PUSH2 0x43E JUMP JUMPDEST PUSH2 0xBE9 DUP4 PUSH1 0x20 ADD MLOAD PUSH2 0xE23 JUMP JUMPDEST PUSH2 0xC27 JUMPI PUSH1 0x40 MLOAD PUSH3 0x461BCD PUSH1 0xE5 SHL DUP2 MSTORE PUSH1 0x20 PUSH1 0x4 DUP3 ADD MSTORE PUSH1 0xF PUSH1 0x24 DUP3 ADD MSTORE PUSH15 0x24B73B30B634B210383937B7B31731 PUSH1 0x89 SHL PUSH1 0x44 DUP3 ADD MSTORE PUSH1 0x64 ADD PUSH2 0x43E JUMP JUMPDEST DUP2 MLOAD PUSH1 0x0 DUP1 MLOAD PUSH1 0x20 PUSH2 0x12E4 DUP4 CODECOPY DUP2 MLOAD SWAP2 MSTORE GT PUSH2 0xC7A JUMPI PUSH1 0x40 MLOAD PUSH3 0x461BCD PUSH1 0xE5 SHL DUP2 MSTORE PUSH1 0x20 PUSH1 0x4 DUP3 ADD MSTORE PUSH1 0x12 PUSH1 0x24 DUP3 ADD MSTORE PUSH18 0x125B9D985B1A590818DBDB5B5A5D1B595B9D PUSH1 0x72 SHL PUSH1 0x44 DUP3 ADD MSTORE PUSH1 0x64 ADD PUSH2 0x43E JUMP JUMPDEST PUSH1 0x0 DUP1 MLOAD PUSH1 0x20 PUSH2 0x12E4 DUP4 CODECOPY DUP2 MLOAD SWAP2 MSTORE DUP3 PUSH1 0x20 ADD MLOAD LT PUSH2 0xCCF JUMPI PUSH1 0x40 MLOAD PUSH3 0x461BCD PUSH1 0xE5 SHL DUP2 MSTORE PUSH1 0x20 PUSH1 0x4 DUP3 ADD MSTORE PUSH1 0x11 PUSH1 0x24 DUP3 ADD MSTORE PUSH17 0x24B73B30B634B210373AB63634B334B2B9 PUSH1 0x79 SHL PUSH1 0x44 DUP3 ADD MSTORE PUSH1 0x64 ADD PUSH2 0x43E JUMP JUMPDEST PUSH1 0x0 DUP1 MLOAD PUSH1 0x20 PUSH2 0x12E4 DUP4 CODECOPY DUP2 MLOAD SWAP2 MSTORE DUP3 PUSH1 0x40 ADD MLOAD LT PUSH2 0xD27 JUMPI PUSH1 0x40 MLOAD PUSH3 0x461BCD PUSH1 0xE5 SHL DUP2 MSTORE PUSH1 0x20 PUSH1 0x4 DUP3 ADD MSTORE PUSH1 0x14 PUSH1 0x24 DUP3 ADD MSTORE PUSH20 0x125B9D985B1A59081C1D589B1A58C81A5B9C1D5D PUSH1 0x62 SHL PUSH1 0x44 DUP3 ADD MSTORE PUSH1 0x64 ADD PUSH2 0x43E JUMP JUMPDEST DUP2 MLOAD PUSH1 0x0 SWAP1 DUP2 MSTORE PUSH1 0x3 PUSH1 0x20 MSTORE PUSH1 0x40 SWAP1 KECCAK256 SLOAD PUSH1 0xFF AND PUSH2 0xD7E JUMPI PUSH1 0x40 MLOAD PUSH3 0x461BCD PUSH1 0xE5 SHL DUP2 MSTORE PUSH1 0x20 PUSH1 0x4 DUP3 ADD MSTORE PUSH1 0x14 PUSH1 0x24 DUP3 ADD MSTORE PUSH20 0x10DBDB5B5A5D1B595B9D081B9BDD08199BDD5B99 PUSH1 0x62 SHL PUSH1 0x44 DUP3 ADD MSTORE PUSH1 0x64 ADD PUSH2 0x43E JUMP JUMPDEST POP PUSH1 0x1 SWAP3 SWAP2 POP POP JUMP JUMPDEST PUSH2 0xD8F PUSH2 0xAF6 JUMP JUMPDEST PUSH1 0x2 DUP1 SLOAD PUSH1 0xFF NOT AND PUSH1 0x1 OR SWAP1 SSTORE PUSH32 0x62E78CEA01BEE320CD4E420270B5EA74000D11B0C9F74754EBDBFC544B05A258 PUSH2 0xA89 CALLER SWAP1 JUMP JUMPDEST PUSH1 0x2 SLOAD PUSH1 0xFF AND PUSH2 0x3CC JUMPI PUSH1 0x40 MLOAD PUSH4 0x8DFC202B PUSH1 0xE0 SHL DUP2 MSTORE PUSH1 0x4 ADD PUSH1 0x40 MLOAD DUP1 SWAP2 SUB SWAP1 REVERT JUMPDEST DUP1 MLOAD PUSH1 0x0 SWAP1 PUSH1 0x0 DUP1 MLOAD PUSH1 0x20 PUSH2 0x12E4 DUP4 CODECOPY DUP2 MLOAD SWAP2 MSTORE GT DUP1 ISZERO PUSH2 0xE1D JUMPI POP PUSH1 0x0 DUP1 MLOAD PUSH1 0x20 PUSH2 0x12E4 DUP4 CODECOPY DUP2 MLOAD SWAP2 MSTORE DUP3 PUSH1 0x1 JUMPDEST PUSH1 0x20 MUL ADD MLOAD LT JUMPDEST SWAP3 SWAP2 POP POP JUMP JUMPDEST DUP1 MLOAD MLOAD PUSH1 0x0 SWAP1 PUSH1 0x0 DUP1 MLOAD PUSH1 0x20 PUSH2 0x12E4 DUP4 CODECOPY DUP2 MLOAD SWAP2 MSTORE GT DUP1 ISZERO PUSH2 0xE57 JUMPI POP DUP2 MLOAD PUSH1 0x20 ADD MLOAD PUSH1 0x0 DUP1 MLOAD PUSH1 0x20 PUSH2 0x12E4 DUP4 CODECOPY DUP2 MLOAD SWAP2 MSTORE GT JUMPDEST DUP1 ISZERO PUSH2 0xE75 JUMPI POP PUSH1 0x20 DUP3 ADD MLOAD MLOAD PUSH1 0x0 DUP1 MLOAD PUSH1 0x20 PUSH2 0x12E4 DUP4 CODECOPY DUP2 MLOAD SWAP2 MSTORE GT JUMPDEST DUP1 ISZERO PUSH2 0xE1D JUMPI POP PUSH1 0x20 DUP3 ADD MLOAD PUSH1 0x0 DUP1 MLOAD PUSH1 0x20 PUSH2 0x12E4 DUP4 CODECOPY DUP2 MLOAD SWAP2 MSTORE SWAP1 PUSH1 0x1 PUSH2 0xE16 JUMP JUMPDEST DUP3 PUSH1 0x2 DUP2 ADD SWAP3 DUP3 ISZERO PUSH2 0xEC6 JUMPI SWAP2 PUSH1 0x20 MUL DUP3 ADD JUMPDEST DUP3 DUP2 GT ISZERO PUSH2 0xEC6 JUMPI DUP3 MLOAD DUP3 SSTORE SWAP2 PUSH1 0x20 ADD SWAP2 SWAP1 PUSH1 0x1 ADD SWAP1 PUSH2 0xEAB JUMP JUMPDEST POP PUSH2 0xED2 SWAP3 SWAP2 POP PUSH2 0xF67 JUMP JUMPDEST POP SWAP1 JUMP JUMPDEST PUSH1 0x4 DUP4 ADD SWAP2 DUP4 SWAP1 DUP3 ISZERO PUSH2 0xF11 JUMPI SWAP2 PUSH1 0x20 MUL DUP3 ADD JUMPDEST DUP3 DUP2 GT ISZERO PUSH2 0xF11 JUMPI DUP3 MLOAD PUSH2 0xF01 SWAP1 DUP4 SWAP1 PUSH1 0x2 PUSH2 0xE98 JUMP JUMPDEST POP SWAP2 PUSH1 0x20 ADD SWAP2 SWAP1 PUSH1 0x2 ADD SWAP1 PUSH2 0xEEA JUMP JUMPDEST POP PUSH2 0xED2 SWAP3 SWAP2 POP PUSH2 0xF7C JUMP JUMPDEST DUP3 DUP1 SLOAD DUP3 DUP3 SSTORE SWAP1 PUSH1 0x0 MSTORE PUSH1 0x20 PUSH1 0x0 KECCAK256 SWAP1 PUSH1 0x2 MUL DUP2 ADD SWAP3 DUP3 ISZERO PUSH2 0xF11 JUMPI SWAP2 PUSH1 0x20 MUL DUP3 ADD JUMPDEST DUP3 DUP2 GT ISZERO PUSH2 0xF11 JUMPI DUP3 MLOAD PUSH2 0xF57 SWAP1 DUP4 SWAP1 PUSH1 0x2 PUSH2 0xE98 JUMP JUMPDEST POP SWAP2 PUSH1 0x20 ADD SWAP2 SWAP1 PUSH1 0x2 ADD SWAP1 PUSH2 0xF40 JUMP JUMPDEST JUMPDEST DUP1 DUP3 GT ISZERO PUSH2 0xED2 JUMPI PUSH1 0x0 DUP2 SSTORE PUSH1 0x1 ADD PUSH2 0xF68 JUMP JUMPDEST DUP1 DUP3 GT ISZERO PUSH2 0xED2 JUMPI PUSH1 0x0 DUP1 DUP3 SSTORE PUSH1 0x1 DUP3 ADD SSTORE PUSH1 0x2 ADD PUSH2 0xF7C JUMP JUMPDEST PUSH1 0x0 PUSH1 0x20 DUP3 DUP5 SUB SLT ISZERO PUSH2 0xFA8 JUMPI PUSH1 0x0 DUP1 REVERT JUMPDEST POP CALLDATALOAD SWAP2 SWAP1 POP JUMP JUMPDEST PUSH1 0x1 PUSH1 0x1 PUSH1 0xA0 SHL SUB DUP2 AND DUP2 EQ PUSH2 0x897 JUMPI PUSH1 0x0 DUP1 REVERT JUMPDEST PUSH1 0x0 PUSH1 0x20 DUP3 DUP5 SUB SLT ISZERO PUSH2 0xFD6 JUMPI PUSH1 0x0 DUP1 REVERT JUMPDEST DUP2 CALLDATALOAD PUSH2 0xFE1 DUP2 PUSH2 0xFAF JUMP JUMPDEST SWAP4 SWAP3 POP POP POP JUMP JUMPDEST PUSH4 0x4E487B71 PUSH1 0xE0 SHL PUSH1 0x0 MSTORE PUSH1 0x41 PUSH1 0x4 MSTORE PUSH1 0x24 PUSH1 0x0 REVERT JUMPDEST PUSH1 0x40 MLOAD PUSH1 0x60 DUP2 ADD PUSH8 0xFFFFFFFFFFFFFFFF DUP2 GT DUP3 DUP3 LT OR ISZERO PUSH2 0x1021 JUMPI PUSH2 0x1021 PUSH2 0xFE8 JUMP JUMPDEST PUSH1 0x40 MSTORE SWAP1 JUMP JUMPDEST PUSH1 0x40 DUP1 MLOAD SWAP1 DUP2 ADD PUSH8 0xFFFFFFFFFFFFFFFF DUP2 GT DUP3 DUP3 LT OR ISZERO PUSH2 0x1021 JUMPI PUSH2 0x1021 PUSH2 0xFE8 JUMP JUMPDEST PUSH1 0x40 MLOAD PUSH1 0x1F DUP3 ADD PUSH1 0x1F NOT AND DUP2 ADD PUSH8 0xFFFFFFFFFFFFFFFF DUP2 GT DUP3 DUP3 LT OR ISZERO PUSH2 0x1073 JUMPI PUSH2 0x1073 PUSH2 0xFE8 JUMP JUMPDEST PUSH1 0x40 MSTORE SWAP2 SWAP1 POP JUMP JUMPDEST PUSH1 0x0 DUP3 PUSH1 0x1F DUP4 ADD SLT PUSH2 0x108C JUMPI PUSH1 0x0 DUP1 REVERT JUMPDEST PUSH2 0x1094 PUSH2 0x1027 JUMP JUMPDEST DUP1 PUSH1 0x40 DUP5 ADD DUP6 DUP2 GT ISZERO PUSH2 0x10A6 JUMPI PUSH1 0x0 DUP1 REVERT JUMPDEST DUP5 JUMPDEST DUP2 DUP2 LT ISZERO PUSH2 0x10C0 JUMPI DUP1 CALLDATALOAD DUP5 MSTORE PUSH1 0x20 SWAP4 DUP5 ADD SWAP4 ADD PUSH2 0x10A8 JUMP JUMPDEST POP SWAP1 SWAP6 SWAP5 POP POP POP POP POP JUMP JUMPDEST PUSH1 0x0 DUP3 PUSH1 0x1F DUP4 ADD SLT PUSH2 0x10DC JUMPI PUSH1 0x0 DUP1 REVERT JUMPDEST PUSH2 0x10E4 PUSH2 0x1027 JUMP JUMPDEST DUP1 PUSH1 0x80 DUP5 ADD DUP6 DUP2 GT ISZERO PUSH2 0x10F6 JUMPI PUSH1 0x0 DUP1 REVERT JUMPDEST DUP5 JUMPDEST DUP2 DUP2 LT ISZERO PUSH2 0x10C0 JUMPI PUSH2 0x110A DUP8 DUP3 PUSH2 0x107B JUMP JUMPDEST DUP5 MSTORE PUSH1 0x20 SWAP1 SWAP4 ADD SWAP3 PUSH1 0x40 ADD PUSH2 0x10F8 JUMP JUMPDEST DUP1 CALLDATALOAD PUSH2 0x1125 DUP2 PUSH2 0xFAF JUMP JUMPDEST SWAP2 SWAP1 POP JUMP JUMPDEST PUSH1 0x0 DUP1 PUSH1 0x0 DUP1 DUP5 DUP7 SUB PUSH2 0x1A0 DUP2 SLT ISZERO PUSH2 0x1142 JUMPI PUSH1 0x0 DUP1 REVERT JUMPDEST PUSH2 0x100 DUP1 DUP3 SLT ISZERO PUSH2 0x1152 JUMPI PUSH1 0x0 DUP1 REVERT JUMPDEST PUSH2 0x115A PUSH2 0xFFE JUMP JUMPDEST PUSH2 0x1164 DUP10 DUP10 PUSH2 0x107B JUMP JUMPDEST DUP2 MSTORE PUSH2 0x1173 DUP10 PUSH1 0x40 DUP11 ADD PUSH2 0x10CB JUMP JUMPDEST PUSH1 0x20 DUP3 ADD MSTORE PUSH2 0x1185 DUP10 PUSH1 0xC0 DUP11 ADD PUSH2 0x107B JUMP JUMPDEST PUSH1 0x40 DUP3 ADD MSTORE SWAP6 POP PUSH1 0x60 PUSH1 0xFF NOT DUP4 ADD SLT ISZERO PUSH2 0x119E JUMPI PUSH1 0x0 DUP1 REVERT JUMPDEST PUSH2 0x11A6 PUSH2 0xFFE JUMP JUMPDEST SWAP1 DUP8 ADD CALLDATALOAD DUP2 MSTORE PUSH2 0x120 DUP8 ADD CALLDATALOAD PUSH1 0x20 DUP3 ADD MSTORE PUSH2 0x140 DUP8 ADD CALLDATALOAD PUSH1 0x40 DUP3 ADD MSTORE SWAP4 POP PUSH2 0x11D3 SWAP1 POP PUSH2 0x160 DUP7 ADD PUSH2 0x111A JUMP JUMPDEST SWAP4 SWAP7 SWAP3 SWAP6 POP SWAP3 SWAP4 PUSH2 0x180 ADD CALLDATALOAD SWAP3 POP POP JUMP JUMPDEST PUSH1 0x0 DUP1 PUSH1 0x0 DUP1 PUSH1 0x0 PUSH2 0x1E0 DUP7 DUP9 SUB SLT ISZERO PUSH2 0x11FD JUMPI PUSH1 0x0 DUP1 REVERT JUMPDEST PUSH2 0x1207 DUP8 DUP8 PUSH2 0x107B JUMP JUMPDEST SWAP5 POP PUSH1 0x40 PUSH2 0x1217 DUP9 DUP3 DUP10 ADD PUSH2 0x10CB JUMP JUMPDEST SWAP5 POP PUSH2 0x1226 DUP9 PUSH1 0xC0 DUP10 ADD PUSH2 0x10CB JUMP JUMPDEST SWAP4 POP PUSH2 0x1236 DUP9 PUSH2 0x140 DUP10 ADD PUSH2 0x10CB JUMP JUMPDEST SWAP3 POP PUSH2 0x1C0 DUP8 ADD CALLDATALOAD PUSH8 0xFFFFFFFFFFFFFFFF DUP1 DUP3 GT ISZERO PUSH2 0x1254 JUMPI PUSH1 0x0 DUP1 REVERT JUMPDEST DUP2 DUP10 ADD SWAP2 POP DUP10 PUSH1 0x1F DUP4 ADD SLT PUSH2 0x1268 JUMPI PUSH1 0x0 DUP1 REVERT JUMPDEST DUP2 CALLDATALOAD PUSH1 0x20 DUP3 DUP3 GT ISZERO PUSH2 0x127C JUMPI PUSH2 0x127C PUSH2 0xFE8 JUMP JUMPDEST PUSH2 0x128A DUP2 DUP4 PUSH1 0x5 SHL ADD PUSH2 0x104A JUMP JUMPDEST DUP3 DUP2 MSTORE DUP2 DUP2 ADD SWAP4 POP PUSH1 0x6 SWAP3 SWAP1 SWAP3 SHL DUP5 ADD DUP2 ADD SWAP2 DUP13 DUP4 GT ISZERO PUSH2 0x12AA JUMPI PUSH1 0x0 DUP1 REVERT JUMPDEST SWAP4 DUP2 ADD SWAP4 JUMPDEST DUP3 DUP6 LT ISZERO PUSH2 0x12D0 JUMPI PUSH2 0x12C1 DUP14 DUP7 PUSH2 0x107B JUMP JUMPDEST DUP5 MSTORE SWAP4 DUP6 ADD SWAP4 SWAP3 DUP2 ADD SWAP3 PUSH2 0x12AF JUMP JUMPDEST DUP1 SWAP7 POP POP POP POP POP POP POP SWAP3 SWAP6 POP SWAP3 SWAP6 SWAP1 SWAP4 POP JUMP INVALID ADDRESS PUSH5 0x4E72E131A0 0x29 0xB8 POP GASLIMIT 0xB6 DUP2 DUP2 PC 0x5D SWAP8 DUP2 PUSH11 0x916871CA8D3C208C16D87C REVERT SELFBALANCE LOG2 PUSH5 0x6970667358 0x22 SLT KECCAK256 SELFDESTRUCT 0x1E PUSH32 0x1FE24E18FB821B01746DE64E99960AE714B105285601ACC43AFDD1B5FF64736F PUSH13 0x63430008140033000000000000 "},"methodIdentifiers":{"CURVE_ORDER()":"81cca3c1","FIELD_MODULUS()":"4f76a98e","balances(address)":"27e235e3","commitments(bytes32)":"839df945","deposit(bytes32)":"b214faa5","emergencyWithdraw()":"db2e21bc","getBalance()":"12065fe0","isCommitmentUsed(bytes32)":"b61b395c","isNullifierUsed(bytes32)":"22dc7b4c","nullifiers(bytes32)":"2997e86b","owner()":"8da5cb5b","pause()":"8456cb59","paused()":"5c975abb","renounceOwnership()":"715018a6","setVerificationKey(uint256[2],uint256[2][2],uint256[2][2],uint256[2][2],uint256[2][])":"bd17bac9","transferOwnership(address)":"f2fde38b","unpause()":"3f4ba83a","verificationKeySet()":"2ed61014","withdraw((uint256[2],uint256[2][2],uint256[2]),(uint256,uint256,uint256),address,uint256)":"73913571"}}}}}