{"contracts/IELTSCredentialVerifier.sol":{"IELTSCredentialVerifier":{"abi":[{"inputs":[],"stateMutability":"nonpayable","type":"constructor"},{"inputs":[{"internalType":"address","name":"owner","type":"address"}],"name":"OwnableInvalidOwner","type":"error"},{"inputs":[{"internalType":"address","name":"account","type":"address"}],"name":"OwnableUnauthorizedAccount","type":"error"},{"inputs":[],"name":"ReentrancyGuardReentrantCall","type":"error"},{"anonymous":false,"inputs":[{"indexed":true,"internalType":"bytes32","name":"credentialHash","type":"bytes32"},{"indexed":true,"internalType":"address","name":"revokedBy","type":"address"}],"name":"CredentialRevoked","type":"event"},{"anonymous":false,"inputs":[{"indexed":true,"internalType":"bytes32","name":"credentialHash","type":"bytes32"},{"indexed":true,"internalType":"bytes32","name":"verificationKey","type":"bytes32"},{"indexed":false,"internalType":"uint256","name":"minimumScore","type":"uint256"},{"indexed":false,"internalType":"uint256","name":"expiryDate","type":"uint256"},{"indexed":false,"internalType":"bool","name":"isValid","type":"bool"},{"indexed":false,"internalType":"bool","name":"meetsMinimum","type":"bool"},{"indexed":false,"internalType":"bool","name":"isNotExpired","type":"bool"},{"indexed":true,"internalType":"address","name":"verifiedBy","type":"address"}],"name":"CredentialVerified","type":"event"},{"anonymous":false,"inputs":[{"indexed":true,"internalType":"address","name":"previousOwner","type":"address"},{"indexed":true,"internalType":"address","name":"newOwner","type":"address"}],"name":"OwnershipTransferred","type":"event"},{"inputs":[{"internalType":"address","name":"verifier","type":"address"}],"name":"addAuthorizedVerifier","outputs":[],"stateMutability":"nonpayable","type":"function"},{"inputs":[{"internalType":"bytes32","name":"","type":"bytes32"}],"name":"authorizedVerifiers","outputs":[{"internalType":"bool","name":"","type":"bool"}],"stateMutability":"view","type":"function"},{"inputs":[{"components":[{"internalType":"uint256[2]","name":"a","type":"uint256[2]"},{"internalType":"uint256[2][2]","name":"b","type":"uint256[2][2]"},{"internalType":"uint256[2]","name":"c","type":"uint256[2]"}],"internalType":"struct IELTSCredentialVerifier.Proof[]","name":"proofs","type":"tuple[]"},{"internalType":"uint256[7][]","name":"publicInputs","type":"uint256[7][]"},{"internalType":"bytes32[]","name":"credentialHashes","type":"bytes32[]"},{"internalType":"bytes32[]","name":"verificationKeys","type":"bytes32[]"},{"internalType":"uint256[]","name":"minimumScores","type":"uint256[]"},{"internalType":"uint256[]","name":"expiryDates","type":"uint256[]"}],"name":"batchVerifyCredentials","outputs":[],"stateMutability":"nonpayable","type":"function"},{"inputs":[{"internalType":"bytes32","name":"credentialHash","type":"bytes32"}],"name":"getCredentialVerification","outputs":[{"components":[{"internalType":"bytes32","name":"credentialHash","type":"bytes32"},{"internalType":"bytes32","name":"verificationKey","type":"bytes32"},{"internalType":"uint256","name":"minimumScore","type":"uint256"},{"internalType":"uint256","name":"expiryDate","type":"uint256"},{"internalType":"bool","name":"isValid","type":"bool"},{"internalType":"bool","name":"meetsMinimum","type":"bool"},{"internalType":"bool","name":"isNotExpired","type":"bool"},{"internalType":"uint256","name":"verifiedAt","type":"uint256"},{"internalType":"address","name":"verifiedBy","type":"address"}],"internalType":"struct IELTSCredentialVerifier.CredentialVerification","name":"","type":"tuple"}],"stateMutability":"view","type":"function"},{"inputs":[],"name":"getVerificationStats","outputs":[{"internalType":"uint256","name":"totalVerified","type":"uint256"},{"internalType":"uint256","name":"validCredentials","type":"uint256"},{"internalType":"uint256","name":"expiredCredentials","type":"uint256"},{"internalType":"uint256","name":"belowMinimum","type":"uint256"}],"stateMutability":"view","type":"function"},{"inputs":[{"internalType":"bytes32","name":"credentialHash","type":"bytes32"}],"name":"isCredentialValid","outputs":[{"internalType":"bool","name":"","type":"bool"}],"stateMutability":"view","type":"function"},{"inputs":[{"internalType":"bytes32","name":"credentialHash","type":"bytes32"},{"internalType":"uint256","name":"requiredScore","type":"uint256"}],"name":"meetsMinimumScore","outputs":[{"internalType":"bool","name":"","type":"bool"}],"stateMutability":"view","type":"function"},{"inputs":[],"name":"owner","outputs":[{"internalType":"address","name":"","type":"address"}],"stateMutability":"view","type":"function"},{"inputs":[{"internalType":"address","name":"verifier","type":"address"}],"name":"removeAuthorizedVerifier","outputs":[],"stateMutability":"nonpayable","type":"function"},{"inputs":[],"name":"renounceOwnership","outputs":[],"stateMutability":"nonpayable","type":"function"},{"inputs":[{"internalType":"bytes32","name":"credentialHash","type":"bytes32"}],"name":"revokeCredential","outputs":[],"stateMutability":"nonpayable","type":"function"},{"inputs":[{"internalType":"address","name":"newOwner","type":"address"}],"name":"transferOwnership","outputs":[],"stateMutability":"nonpayable","type":"function"},{"inputs":[{"internalType":"bytes32","name":"","type":"bytes32"}],"name":"usedCredentialHashes","outputs":[{"internalType":"bool","name":"","type":"bool"}],"stateMutability":"view","type":"function"},{"inputs":[{"internalType":"bytes32","name":"","type":"bytes32"}],"name":"verifiedCredentials","outputs":[{"internalType":"bytes32","name":"credentialHash","type":"bytes32"},{"internalType":"bytes32","name":"verificationKey","type":"bytes32"},{"internalType":"uint256","name":"minimumScore","type":"uint256"},{"internalType":"uint256","name":"expiryDate","type":"uint256"},{"internalType":"bool","name":"isValid","type":"bool"},{"internalType":"bool","name":"meetsMinimum","type":"bool"},{"internalType":"bool","name":"isNotExpired","type":"bool"},{"internalType":"uint256","name":"verifiedAt","type":"uint256"},{"internalType":"address","name":"verifiedBy","type":"address"}],"stateMutability":"view","type":"function"},{"inputs":[{"components":[{"internalType":"uint256[2]","name":"a","type":"uint256[2]"},{"internalType":"uint256[2][2]","name":"b","type":"uint256[2][2]"},{"internalType":"uint256[2]","name":"c","type":"uint256[2]"}],"internalType":"struct IELTSCredentialVerifier.Proof","name":"proof","type":"tuple"},{"internalType":"uint256[7]","name":"publicInputs","type":"uint256[7]"},{"internalType":"bytes32","name":"credentialHash","type":"bytes32"},{"internalType":"bytes32","name":"verificationKey","type":"bytes32"},{"internalType":"uint256","name":"minimumScore","type":"uint256"},{"internalType":"uint256","name":"expiryDate","type":"uint256"}],"name":"verifyCredential","outputs":[],"stateMutability":"nonpayable","type":"function"}],"evm":{"bytecode":{"linkReferences":{},"object":"608060405234801561001057600080fd5b50338061003757604051631e4fbdf760e01b81526000600482015260240160405180910390fd5b61004081610096565b506001808055604080513360601b6001600160601b03191660208083019190915282516014818403018152603490920183528151918101919091206000908152600490915220805460ff191690911790556100e6565b600080546001600160a01b038381166001600160a01b0319831681178455604051919092169283917f8be0079c531659141344cd1fd0a4f28419497f9722a3daafe3b4186f6b6457e09190a35050565b611630806100f56000396000f3fe608060405234801561001057600080fd5b50600436106100f55760003560e01c80639027c35011610097578063e4518e1211610066578063e4518e1214610379578063efcf6a8d1461038c578063f2fde38b146103b1578063f462ed94146103c457600080fd5b80639027c35014610284578063a65a2c3e14610340578063b2d65b0f14610353578063ca6eec781461036657600080fd5b80636dc158eb116100d35780636dc158eb1461023b5780636e607fa71461024e578063715018a6146102615780638da5cb5b1461026957600080fd5b80633d7f6e2c146100fa5780635ae4776f146101325780635c5d278514610226575b600080fd5b61011d610108366004610f1b565b60036020526000908152604090205460ff1681565b60405190151581526020015b60405180910390f35b610219610140366004610f1b565b6040805161012081018252600080825260208201819052918101829052606081018290526080810182905260a0810182905260c0810182905260e081018290526101008101919091525060009081526002602081815260409283902083516101208101855281548152600182015492810192909252918201549281019290925260038101546060830152600481015460ff808216151560808501526101008083048216151560a08601526201000090920416151560c0840152600582015460e08401526006909101546001600160a01b03169082015290565b6040516101299190610f34565b610239610234366004611305565b6103e7565b005b61011d610249366004610f1b565b61062b565b61023961025c3660046113fa565b6106cf565b610239610725565b6000546040516001600160a01b039091168152602001610129565b6102ef610292366004610f1b565b600260208190526000918252604090912080546001820154928201546003830154600484015460058501546006909501549395949293919260ff80831693610100840482169362010000900490911691906001600160a01b031689565b60408051998a5260208a01989098529688019590955260608701939093529015156080860152151560a0850152151560c084015260e08301526001600160a01b031661010082015261012001610129565b61023961034e3660046113fa565b610739565b610239610361366004611423565b610758565b610239610374366004610f1b565b610a77565b61011d610387366004611480565b610b68565b6000808080604080519485526020850193909352918301526060820152608001610129565b6102396103bf3660046113fa565b610c10565b61011d6103d2366004610f1b565b60046020526000908152604090205460ff1681565b6103ef610c4e565b600460003360405160200161040491906114a2565b60408051601f198184030181529181528151602092830120835290820192909252016000205460ff166104785760405162461bcd60e51b81526020600482015260176024820152762737ba1030baba3437b934bd32b2103b32b934b334b2b960491b60448201526064015b60405180910390fd5b8451865114801561048a575083518551145b8015610497575082518451145b80156104a4575081518351145b80156104b1575080518251145b6104f65760405162461bcd60e51b8152602060048201526016602482015275082e4e4c2f240d8cadccee8d0e640dad2e6dac2e8c6d60531b604482015260640161046f565b60005b8651811015610619576000868281518110610516576105166114bf565b60200260200101519050306001600160a01b031663b2d65b0f898481518110610541576105416114bf565b60200260200101518389868151811061055c5761055c6114bf565b6020026020010151898781518110610576576105766114bf565b6020026020010151898881518110610590576105906114bf565b60200260200101518989815181106105aa576105aa6114bf565b60200260200101516040518763ffffffff1660e01b81526004016105d396959493929190611521565b600060405180830381600087803b1580156105ed57600080fd5b505af1158015610601573d6000803e3d6000fd5b50505050508080610611906115b3565b9150506104f9565b5061062360018055565b505050505050565b600081815260026020818152604080842081516101208101835281548152600182015493810193909352928301549082015260038201546060820152600482015460ff808216158015608085018190526101008085048416151560a087015262010000909404909216151560c0850152600585015460e08501526006909401546001600160a01b03169183019190915290916106c857508060c001515b9392505050565b6106d7610c78565b600160046000836040516020016106ee91906114a2565b60408051808303601f19018152918152815160209283012083529082019290925201600020805460ff191691151591909117905550565b61072d610c78565b6107376000610ca5565b565b610741610c78565b600060046000836040516020016106ee91906114a2565b610760610c4e565b600460003360405160200161077591906114a2565b60408051601f198184030181529181528151602092830120835290820192909252016000205460ff166107e45760405162461bcd60e51b81526020600482015260176024820152762737ba1030baba3437b934bd32b2103b32b934b334b2b960491b604482015260640161046f565b60008481526003602052604090205460ff16156108435760405162461bcd60e51b815260206004820152601b60248201527f43726564656e7469616c20616c72656164792076657269666965640000000000604482015260640161046f565b61084d8686610cf5565b6108895760405162461bcd60e51b815260206004820152600d60248201526c24b73b30b634b210383937b7b360991b604482015260640161046f565b60008560056020020151151590506000866006602002015160001415905060006001905060016003600089815260200190815260200160002060006101000a81548160ff021916908315150217905550604051806101200160405280888152602001878152602001868152602001858152602001841515815260200183151581526020018215158152602001428152602001336001600160a01b0316815250600260008981526020019081526020016000206000820151816000015560208201518160010155604082015181600201556060820151816003015560808201518160040160006101000a81548160ff02191690831515021790555060a08201518160040160016101000a81548160ff02191690831515021790555060c08201518160040160026101000a81548160ff02191690831515021790555060e082015181600501556101008201518160060160006101000a8154816001600160a01b0302191690836001600160a01b03160217905550905050336001600160a01b031686887ff50386f847c6b844322d38164465f2b8c82396dbef4a23746b1a0c8c3c460c328888888888604051610a6395949392919094855260208501939093529015156040840152151560608301521515608082015260a00190565b60405180910390a450505061062360018055565b610a7f610c78565b60008181526003602052604090205460ff16610add5760405162461bcd60e51b815260206004820152601760248201527f43726564656e7469616c206e6f74207665726966696564000000000000000000604482015260640161046f565b600081815260026020818152604080842084815560018101859055928301849055600380840185905560048401805462ffffff1916905560058401859055600690930180546001600160a01b0319169055919052808220805460ff1916905551339183917fd3196f598a360c115a1de20d5a58021203793f1bf1a08efe55ee14545779606d9190a350565b600082815260026020818152604080842081516101208101835281548152600182015493810193909352928301549082015260038201546060820152600482015460ff80821615156080840152610100808304821615801560a0860181905262010000909404909216151560c0850152600585015460e08501526006909401546001600160a01b0316938301939093529091610c08575082816040015110155b949350505050565b610c18610c78565b6001600160a01b038116610c4257604051631e4fbdf760e01b81526000600482015260240161046f565b610c4b81610ca5565b50565b600260015403610c7157604051633ee5aeb560e01b815260040160405180910390fd5b6002600155565b6000546001600160a01b031633146107375760405163118cdaa760e01b815233600482015260240161046f565b600080546001600160a01b038381166001600160a01b0319831681178455604051919092169283917f8be0079c531659141344cd1fd0a4f28419497f9722a3daafe3b4186f6b6457e09190a35050565b6000610d048360000151610e6a565b610d425760405162461bcd60e51b815260206004820152600f60248201526e496e76616c69642070726f6f662e6160881b604482015260640161046f565b610d4f8360400151610e6a565b610d8d5760405162461bcd60e51b815260206004820152600f60248201526e496e76616c69642070726f6f662e6360881b604482015260640161046f565b610d9a8360200151610ea6565b610dd85760405162461bcd60e51b815260206004820152600f60248201526e24b73b30b634b210383937b7b3173160891b604482015260640161046f565b60005b6007811015610e60576000805160206115db833981519152838260078110610e0557610e056114bf565b602002015110610e4e5760405162461bcd60e51b8152602060048201526014602482015273125b9d985b1a59081c1d589b1a58c81a5b9c1d5d60621b604482015260640161046f565b80610e58816115b3565b915050610ddb565b5060019392505050565b80516000906000805160206115db833981519152118015610ea057506000805160206115db8339815191528260015b6020020151105b92915050565b8051516000906000805160206115db833981519152118015610eda57508151602001516000805160206115db833981519152115b8015610ef857506020820151516000805160206115db833981519152115b8015610ea0575060208201516000805160206115db833981519152906001610e99565b600060208284031215610f2d57600080fd5b5035919050565b6000610120820190508251825260208301516020830152604083015160408301526060830151606083015260808301511515608083015260a0830151151560a083015260c0830151610f8a60c084018215159052565b5060e083015160e083015261010080840151610fb0828501826001600160a01b03169052565b505092915050565b634e487b7160e01b600052604160045260246000fd5b6040516060810167ffffffffffffffff81118282101715610ff157610ff1610fb8565b60405290565b6040805190810167ffffffffffffffff81118282101715610ff157610ff1610fb8565b604051601f8201601f1916810167ffffffffffffffff8111828210171561104357611043610fb8565b604052919050565b600067ffffffffffffffff82111561106557611065610fb8565b5060051b60200190565b600082601f83011261108057600080fd5b611088610ff7565b80604084018581111561109a57600080fd5b845b818110156110b457803584526020938401930161109c565b509095945050505050565b600061010082840312156110d257600080fd5b6110da610fce565b90506110e6838361106f565b8152604083605f8401126110f957600080fd5b611101610ff7565b8060c085018681111561111357600080fd5b8386015b8181101561113857611129888261106f565b84526020909301928401611117565b50816020860152611149878261106f565b848601525050505092915050565b600082601f83011261116857600080fd5b8135602061117d6111788361104b565b61101a565b82815260089290921b8401810191818101908684111561119c57600080fd5b8286015b848110156111c1576111b288826110bf565b835291830191610100016111a0565b509695505050505050565b600082601f8301126111dd57600080fd5b60405160e0810181811067ffffffffffffffff8211171561120057611200610fb8565b6040528060e084018581111561121557600080fd5b845b8181101561122f578035835260209283019201611217565b509195945050505050565b600082601f83011261124b57600080fd5b8135602061125b6111788361104b565b82815260e0928302850182019282820191908785111561127a57600080fd5b8387015b8581101561129d5761129089826111cc565b845292840192810161127e565b5090979650505050505050565b600082601f8301126112bb57600080fd5b813560206112cb6111788361104b565b82815260059290921b840181019181810190868411156112ea57600080fd5b8286015b848110156111c157803583529183019183016112ee565b60008060008060008060c0878903121561131e57600080fd5b863567ffffffffffffffff8082111561133657600080fd5b6113428a838b01611157565b9750602089013591508082111561135857600080fd5b6113648a838b0161123a565b9650604089013591508082111561137a57600080fd5b6113868a838b016112aa565b9550606089013591508082111561139c57600080fd5b6113a88a838b016112aa565b945060808901359150808211156113be57600080fd5b6113ca8a838b016112aa565b935060a08901359150808211156113e057600080fd5b506113ed89828a016112aa565b9150509295509295509295565b60006020828403121561140c57600080fd5b81356001600160a01b03811681146106c857600080fd5b600080600080600080610260878903121561143d57600080fd5b61144788886110bf565b95506114578861010089016111cc565b95989597505050506101e084013593610200810135936102208201359350610240909101359150565b6000806040838503121561149357600080fd5b50508035926020909101359150565b60609190911b6bffffffffffffffffffffffff1916815260140190565b634e487b7160e01b600052603260045260246000fd5b8060005b60028110156114f85781518452602093840193909101906001016114d9565b50505050565b8060005b60078110156114f8578151845260209384019390910190600101611502565b6000610260820190506115358289516114d5565b602080890151604080850160005b6002811015611567576115578285516114d5565b9284019290820190600101611543565b50508a0151915061157d905060c08401826114d5565b5061158c6101008301886114fe565b856101e0830152846102008301528361022083015282610240830152979650505050505050565b6000600182016115d357634e487b7160e01b600052601160045260246000fd5b506001019056fe30644e72e131a029b85045b68181585d97816a916871ca8d3c208c16d87cfd47a26469706673582212209395f4f9b9e0c84ab5fb2cfdd50c013b307f0b68d25dac00dc442010e05b80b264736f6c63430008140033","opcodes":"PUSH1 0x80 PUSH1 0x40 MSTORE CALLVALUE DUP1 ISZERO PUSH2 0x10 JUMPI PUSH1 0x0 DUP1 REVERT JUMPDEST POP CALLER DUP1 PUSH2 0x37 JUMPI PUSH1 0x40 MLOAD PUSH4 0x1E4FBDF7 PUSH1 0xE0 SHL DUP2 MSTORE PUSH1 0x0 PUSH1 0x4 DUP3 ADD MSTORE PUSH1 0x24 ADD PUSH1 0x40 MLOAD DUP1 SWAP2 SUB SWAP1 REVERT JUMPDEST PUSH2 0x40 DUP2 PUSH2 0x96 JUMP JUMPDEST POP PUSH1 0x1 DUP1 DUP1 SSTORE PUSH1 0x40 DUP1 MLOAD CALLER PUSH1 0x60 SHL PUSH1 0x1 PUSH1 0x1 PUSH1 0x60 SHL SUB NOT AND PUSH1 0x20 DUP1 DUP4 ADD SWAP2 SWAP1 SWAP2 MSTORE DUP3 MLOAD PUSH1 0x14 DUP2 DUP5 SUB ADD DUP2 MSTORE PUSH1 0x34 SWAP1 SWAP3 ADD DUP4 MSTORE DUP2 MLOAD SWAP2 DUP2 ADD SWAP2 SWAP1 SWAP2 KECCAK256 PUSH1 0x0 SWAP1 DUP2 MSTORE PUSH1 0x4 SWAP1 SWAP2 MSTORE KECCAK256 DUP1 SLOAD PUSH1 0xFF NOT AND SWAP1 SWAP2 OR SWAP1 SSTORE PUSH2 0xE6 JUMP JUMPDEST PUSH1 0x0 DUP1 SLOAD PUSH1 0x1 PUSH1 0x1 PUSH1 0xA0 SHL SUB DUP4 DUP2 AND PUSH1 0x1 PUSH1 0x1 PUSH1 0xA0 SHL SUB NOT DUP4 AND DUP2 OR DUP5 SSTORE PUSH1 0x40 MLOAD SWAP2 SWAP1 SWAP3 AND SWAP3 DUP4 SWAP2 PUSH32 0x8BE0079C531659141344CD1FD0A4F28419497F9722A3DAAFE3B4186F6B6457E0 SWAP2 SWAP1 LOG3 POP POP JUMP JUMPDEST PUSH2 0x1630 DUP1 PUSH2 0xF5 PUSH1 0x0 CODECOPY PUSH1 0x0 RETURN INVALID PUSH1 0x80 PUSH1 0x40 MSTORE CALLVALUE DUP1 ISZERO PUSH2 0x10 JUMPI PUSH1 0x0 DUP1 REVERT JUMPDEST POP PUSH1 0x4 CALLDATASIZE LT PUSH2 0xF5 JUMPI PUSH1 0x0 CALLDATALOAD PUSH1 0xE0 SHR DUP1 PUSH4 0x9027C350 GT PUSH2 0x97 JUMPI DUP1 PUSH4 0xE4518E12 GT PUSH2 0x66 JUMPI DUP1 PUSH4 0xE4518E12 EQ PUSH2 0x379 JUMPI DUP1 PUSH4 0xEFCF6A8D EQ PUSH2 0x38C JUMPI DUP1 PUSH4 0xF2FDE38B EQ PUSH2 0x3B1 JUMPI DUP1 PUSH4 0xF462ED94 EQ PUSH2 0x3C4 JUMPI PUSH1 0x0 DUP1 REVERT JUMPDEST DUP1 PUSH4 0x9027C350 EQ PUSH2 0x284 JUMPI DUP1 PUSH4 0xA65A2C3E EQ PUSH2 0x340 JUMPI DUP1 PUSH4 0xB2D65B0F EQ PUSH2 0x353 JUMPI DUP1 PUSH4 0xCA6EEC78 EQ PUSH2 0x366 JUMPI PUSH1 0x0 DUP1 REVERT JUMPDEST DUP1 PUSH4 0x6DC158EB GT PUSH2 0xD3 JUMPI DUP1 PUSH4 0x6DC158EB EQ PUSH2 0x23B JUMPI DUP1 PUSH4 0x6E607FA7 EQ PUSH2 0x24E JUMPI DUP1 PUSH4 0x715018A6 EQ PUSH2 0x261 JUMPI DUP1 PUSH4 0x8DA5CB5B EQ PUSH2 0x269 JUMPI PUSH1 0x0 DUP1 REVERT JUMPDEST DUP1 PUSH4 0x3D7F6E2C EQ PUSH2 0xFA JUMPI DUP1 PUSH4 0x5AE4776F EQ PUSH2 0x132 JUMPI DUP1 PUSH4 0x5C5D2785 EQ PUSH2 0x226 JUMPI JUMPDEST PUSH1 0x0 DUP1 REVERT JUMPDEST PUSH2 0x11D PUSH2 0x108 CALLDATASIZE PUSH1 0x4 PUSH2 0xF1B JUMP JUMPDEST PUSH1 0x3 PUSH1 0x20 MSTORE PUSH1 0x0 SWAP1 DUP2 MSTORE PUSH1 0x40 SWAP1 KECCAK256 SLOAD PUSH1 0xFF AND DUP2 JUMP JUMPDEST PUSH1 0x40 MLOAD SWAP1 ISZERO ISZERO DUP2 MSTORE PUSH1 0x20 ADD JUMPDEST PUSH1 0x40 MLOAD DUP1 SWAP2 SUB SWAP1 RETURN JUMPDEST PUSH2 0x219 PUSH2 0x140 CALLDATASIZE PUSH1 0x4 PUSH2 0xF1B JUMP JUMPDEST PUSH1 0x40 DUP1 MLOAD PUSH2 0x120 DUP2 ADD DUP3 MSTORE PUSH1 0x0 DUP1 DUP3 MSTORE PUSH1 0x20 DUP3 ADD DUP2 SWAP1 MSTORE SWAP2 DUP2 ADD DUP3 SWAP1 MSTORE PUSH1 0x60 DUP2 ADD DUP3 SWAP1 MSTORE PUSH1 0x80 DUP2 ADD DUP3 SWAP1 MSTORE PUSH1 0xA0 DUP2 ADD DUP3 SWAP1 MSTORE PUSH1 0xC0 DUP2 ADD DUP3 SWAP1 MSTORE PUSH1 0xE0 DUP2 ADD DUP3 SWAP1 MSTORE PUSH2 0x100 DUP2 ADD SWAP2 SWAP1 SWAP2 MSTORE POP PUSH1 0x0 SWAP1 DUP2 MSTORE PUSH1 0x2 PUSH1 0x20 DUP2 DUP2 MSTORE PUSH1 0x40 SWAP3 DUP4 SWAP1 KECCAK256 DUP4 MLOAD PUSH2 0x120 DUP2 ADD DUP6 MSTORE DUP2 SLOAD DUP2 MSTORE PUSH1 0x1 DUP3 ADD SLOAD SWAP3 DUP2 ADD SWAP3 SWAP1 SWAP3 MSTORE SWAP2 DUP3 ADD SLOAD SWAP3 DUP2 ADD SWAP3 SWAP1 SWAP3 MSTORE PUSH1 0x3 DUP2 ADD SLOAD PUSH1 0x60 DUP4 ADD MSTORE PUSH1 0x4 DUP2 ADD SLOAD PUSH1 0xFF DUP1 DUP3 AND ISZERO ISZERO PUSH1 0x80 DUP6 ADD MSTORE PUSH2 0x100 DUP1 DUP4 DIV DUP3 AND ISZERO ISZERO PUSH1 0xA0 DUP7 ADD MSTORE PUSH3 0x10000 SWAP1 SWAP3 DIV AND ISZERO ISZERO PUSH1 0xC0 DUP5 ADD MSTORE PUSH1 0x5 DUP3 ADD SLOAD PUSH1 0xE0 DUP5 ADD MSTORE PUSH1 0x6 SWAP1 SWAP2 ADD SLOAD PUSH1 0x1 PUSH1 0x1 PUSH1 0xA0 SHL SUB AND SWAP1 DUP3 ADD MSTORE SWAP1 JUMP JUMPDEST PUSH1 0x40 MLOAD PUSH2 0x129 SWAP2 SWAP1 PUSH2 0xF34 JUMP JUMPDEST PUSH2 0x239 PUSH2 0x234 CALLDATASIZE PUSH1 0x4 PUSH2 0x1305 JUMP JUMPDEST PUSH2 0x3E7 JUMP JUMPDEST STOP JUMPDEST PUSH2 0x11D PUSH2 0x249 CALLDATASIZE PUSH1 0x4 PUSH2 0xF1B JUMP JUMPDEST PUSH2 0x62B JUMP JUMPDEST PUSH2 0x239 PUSH2 0x25C CALLDATASIZE PUSH1 0x4 PUSH2 0x13FA JUMP JUMPDEST PUSH2 0x6CF JUMP JUMPDEST PUSH2 0x239 PUSH2 0x725 JUMP JUMPDEST PUSH1 0x0 SLOAD PUSH1 0x40 MLOAD PUSH1 0x1 PUSH1 0x1 PUSH1 0xA0 SHL SUB SWAP1 SWAP2 AND DUP2 MSTORE PUSH1 0x20 ADD PUSH2 0x129 JUMP JUMPDEST PUSH2 0x2EF PUSH2 0x292 CALLDATASIZE PUSH1 0x4 PUSH2 0xF1B JUMP JUMPDEST PUSH1 0x2 PUSH1 0x20 DUP2 SWAP1 MSTORE PUSH1 0x0 SWAP2 DUP3 MSTORE PUSH1 0x40 SWAP1 SWAP2 KECCAK256 DUP1 SLOAD PUSH1 0x1 DUP3 ADD SLOAD SWAP3 DUP3 ADD SLOAD PUSH1 0x3 DUP4 ADD SLOAD PUSH1 0x4 DUP5 ADD SLOAD PUSH1 0x5 DUP6 ADD SLOAD PUSH1 0x6 SWAP1 SWAP6 ADD SLOAD SWAP4 SWAP6 SWAP5 SWAP3 SWAP4 SWAP2 SWAP3 PUSH1 0xFF DUP1 DUP4 AND SWAP4 PUSH2 0x100 DUP5 DIV DUP3 AND SWAP4 PUSH3 0x10000 SWAP1 DIV SWAP1 SWAP2 AND SWAP2 SWAP1 PUSH1 0x1 PUSH1 0x1 PUSH1 0xA0 SHL SUB AND DUP10 JUMP JUMPDEST PUSH1 0x40 DUP1 MLOAD SWAP10 DUP11 MSTORE PUSH1 0x20 DUP11 ADD SWAP9 SWAP1 SWAP9 MSTORE SWAP7 DUP9 ADD SWAP6 SWAP1 SWAP6 MSTORE PUSH1 0x60 DUP8 ADD SWAP4 SWAP1 SWAP4 MSTORE SWAP1 ISZERO ISZERO PUSH1 0x80 DUP7 ADD MSTORE ISZERO ISZERO PUSH1 0xA0 DUP6 ADD MSTORE ISZERO ISZERO PUSH1 0xC0 DUP5 ADD MSTORE PUSH1 0xE0 DUP4 ADD MSTORE PUSH1 0x1 PUSH1 0x1 PUSH1 0xA0 SHL SUB AND PUSH2 0x100 DUP3 ADD MSTORE PUSH2 0x120 ADD PUSH2 0x129 JUMP JUMPDEST PUSH2 0x239 PUSH2 0x34E CALLDATASIZE PUSH1 0x4 PUSH2 0x13FA JUMP JUMPDEST PUSH2 0x739 JUMP JUMPDEST PUSH2 0x239 PUSH2 0x361 CALLDATASIZE PUSH1 0x4 PUSH2 0x1423 JUMP JUMPDEST PUSH2 0x758 JUMP JUMPDEST PUSH2 0x239 PUSH2 0x374 CALLDATASIZE PUSH1 0x4 PUSH2 0xF1B JUMP JUMPDEST PUSH2 0xA77 JUMP JUMPDEST PUSH2 0x11D PUSH2 0x387 CALLDATASIZE PUSH1 0x4 PUSH2 0x1480 JUMP JUMPDEST PUSH2 0xB68 JUMP JUMPDEST PUSH1 0x0 DUP1 DUP1 DUP1 PUSH1 0x40 DUP1 MLOAD SWAP5 DUP6 MSTORE PUSH1 0x20 DUP6 ADD SWAP4 SWAP1 SWAP4 MSTORE SWAP2 DUP4 ADD MSTORE PUSH1 0x60 DUP3 ADD MSTORE PUSH1 0x80 ADD PUSH2 0x129 JUMP JUMPDEST PUSH2 0x239 PUSH2 0x3BF CALLDATASIZE PUSH1 0x4 PUSH2 0x13FA JUMP JUMPDEST PUSH2 0xC10 JUMP JUMPDEST PUSH2 0x11D PUSH2 0x3D2 CALLDATASIZE PUSH1 0x4 PUSH2 0xF1B JUMP JUMPDEST PUSH1 0x4 PUSH1 0x20 MSTORE PUSH1 0x0 SWAP1 DUP2 MSTORE PUSH1 0x40 SWAP1 KECCAK256 SLOAD PUSH1 0xFF AND DUP2 JUMP JUMPDEST PUSH2 0x3EF PUSH2 0xC4E JUMP JUMPDEST PUSH1 0x4 PUSH1 0x0 CALLER PUSH1 0x40 MLOAD PUSH1 0x20 ADD PUSH2 0x404 SWAP2 SWAP1 PUSH2 0x14A2 JUMP JUMPDEST PUSH1 0x40 DUP1 MLOAD PUSH1 0x1F NOT DUP2 DUP5 SUB ADD DUP2 MSTORE SWAP2 DUP2 MSTORE DUP2 MLOAD PUSH1 0x20 SWAP3 DUP4 ADD KECCAK256 DUP4 MSTORE SWAP1 DUP3 ADD SWAP3 SWAP1 SWAP3 MSTORE ADD PUSH1 0x0 KECCAK256 SLOAD PUSH1 0xFF AND PUSH2 0x478 JUMPI PUSH1 0x40 MLOAD PUSH3 0x461BCD PUSH1 0xE5 SHL DUP2 MSTORE PUSH1 0x20 PUSH1 0x4 DUP3 ADD MSTORE PUSH1 0x17 PUSH1 0x24 DUP3 ADD MSTORE PUSH23 0x2737BA1030BABA3437B934BD32B2103B32B934B334B2B9 PUSH1 0x49 SHL PUSH1 0x44 DUP3 ADD MSTORE PUSH1 0x64 ADD JUMPDEST PUSH1 0x40 MLOAD DUP1 SWAP2 SUB SWAP1 REVERT JUMPDEST DUP5 MLOAD DUP7 MLOAD EQ DUP1 ISZERO PUSH2 0x48A JUMPI POP DUP4 MLOAD DUP6 MLOAD EQ JUMPDEST DUP1 ISZERO PUSH2 0x497 JUMPI POP DUP3 MLOAD DUP5 MLOAD EQ JUMPDEST DUP1 ISZERO PUSH2 0x4A4 JUMPI POP DUP2 MLOAD DUP4 MLOAD EQ JUMPDEST DUP1 ISZERO PUSH2 0x4B1 JUMPI POP DUP1 MLOAD DUP3 MLOAD EQ JUMPDEST PUSH2 0x4F6 JUMPI PUSH1 0x40 MLOAD PUSH3 0x461BCD PUSH1 0xE5 SHL DUP2 MSTORE PUSH1 0x20 PUSH1 0x4 DUP3 ADD MSTORE PUSH1 0x16 PUSH1 0x24 DUP3 ADD MSTORE PUSH22 0x82E4E4C2F240D8CADCCEE8D0E640DAD2E6DAC2E8C6D PUSH1 0x53 SHL PUSH1 0x44 DUP3 ADD MSTORE PUSH1 0x64 ADD PUSH2 0x46F JUMP JUMPDEST PUSH1 0x0 JUMPDEST DUP7 MLOAD DUP2 LT ISZERO PUSH2 0x619 JUMPI PUSH1 0x0 DUP7 DUP3 DUP2 MLOAD DUP2 LT PUSH2 0x516 JUMPI PUSH2 0x516 PUSH2 0x14BF JUMP JUMPDEST PUSH1 0x20 MUL PUSH1 0x20 ADD ADD MLOAD SWAP1 POP ADDRESS PUSH1 0x1 PUSH1 0x1 PUSH1 0xA0 SHL SUB AND PUSH4 0xB2D65B0F DUP10 DUP5 DUP2 MLOAD DUP2 LT PUSH2 0x541 JUMPI PUSH2 0x541 PUSH2 0x14BF JUMP JUMPDEST PUSH1 0x20 MUL PUSH1 0x20 ADD ADD MLOAD DUP4 DUP10 DUP7 DUP2 MLOAD DUP2 LT PUSH2 0x55C JUMPI PUSH2 0x55C PUSH2 0x14BF JUMP JUMPDEST PUSH1 0x20 MUL PUSH1 0x20 ADD ADD MLOAD DUP10 DUP8 DUP2 MLOAD DUP2 LT PUSH2 0x576 JUMPI PUSH2 0x576 PUSH2 0x14BF JUMP JUMPDEST PUSH1 0x20 MUL PUSH1 0x20 ADD ADD MLOAD DUP10 DUP9 DUP2 MLOAD DUP2 LT PUSH2 0x590 JUMPI PUSH2 0x590 PUSH2 0x14BF JUMP JUMPDEST PUSH1 0x20 MUL PUSH1 0x20 ADD ADD MLOAD DUP10 DUP10 DUP2 MLOAD DUP2 LT PUSH2 0x5AA JUMPI PUSH2 0x5AA PUSH2 0x14BF JUMP JUMPDEST PUSH1 0x20 MUL PUSH1 0x20 ADD ADD MLOAD PUSH1 0x40 MLOAD DUP8 PUSH4 0xFFFFFFFF AND PUSH1 0xE0 SHL DUP2 MSTORE PUSH1 0x4 ADD PUSH2 0x5D3 SWAP7 SWAP6 SWAP5 SWAP4 SWAP3 SWAP2 SWAP1 PUSH2 0x1521 JUMP JUMPDEST PUSH1 0x0 PUSH1 0x40 MLOAD DUP1 DUP4 SUB DUP2 PUSH1 0x0 DUP8 DUP1 EXTCODESIZE ISZERO DUP1 ISZERO PUSH2 0x5ED JUMPI PUSH1 0x0 DUP1 REVERT JUMPDEST POP GAS CALL ISZERO DUP1 ISZERO PUSH2 0x601 JUMPI RETURNDATASIZE PUSH1 0x0 DUP1 RETURNDATACOPY RETURNDATASIZE PUSH1 0x0 REVERT JUMPDEST POP POP POP POP POP DUP1 DUP1 PUSH2 0x611 SWAP1 PUSH2 0x15B3 JUMP JUMPDEST SWAP2 POP POP PUSH2 0x4F9 JUMP JUMPDEST POP PUSH2 0x623 PUSH1 0x1 DUP1 SSTORE JUMP JUMPDEST POP POP POP POP POP POP JUMP JUMPDEST PUSH1 0x0 DUP2 DUP2 MSTORE PUSH1 0x2 PUSH1 0x20 DUP2 DUP2 MSTORE PUSH1 0x40 DUP1 DUP5 KECCAK256 DUP2 MLOAD PUSH2 0x120 DUP2 ADD DUP4 MSTORE DUP2 SLOAD DUP2 MSTORE PUSH1 0x1 DUP3 ADD SLOAD SWAP4 DUP2 ADD SWAP4 SWAP1 SWAP4 MSTORE SWAP3 DUP4 ADD SLOAD SWAP1 DUP3 ADD MSTORE PUSH1 0x3 DUP3 ADD SLOAD PUSH1 0x60 DUP3 ADD MSTORE PUSH1 0x4 DUP3 ADD SLOAD PUSH1 0xFF DUP1 DUP3 AND ISZERO DUP1 ISZERO PUSH1 0x80 DUP6 ADD DUP2 SWAP1 MSTORE PUSH2 0x100 DUP1 DUP6 DIV DUP5 AND ISZERO ISZERO PUSH1 0xA0 DUP8 ADD MSTORE PUSH3 0x10000 SWAP1 SWAP5 DIV SWAP1 SWAP3 AND ISZERO ISZERO PUSH1 0xC0 DUP6 ADD MSTORE PUSH1 0x5 DUP6 ADD SLOAD PUSH1 0xE0 DUP6 ADD MSTORE PUSH1 0x6 SWAP1 SWAP5 ADD SLOAD PUSH1 0x1 PUSH1 0x1 PUSH1 0xA0 SHL SUB AND SWAP2 DUP4 ADD SWAP2 SWAP1 SWAP2 MSTORE SWAP1 SWAP2 PUSH2 0x6C8 JUMPI POP DUP1 PUSH1 0xC0 ADD MLOAD JUMPDEST SWAP4 SWAP3 POP POP POP JUMP JUMPDEST PUSH2 0x6D7 PUSH2 0xC78 JUMP JUMPDEST PUSH1 0x1 PUSH1 0x4 PUSH1 0x0 DUP4 PUSH1 0x40 MLOAD PUSH1 0x20 ADD PUSH2 0x6EE SWAP2 SWAP1 PUSH2 0x14A2 JUMP JUMPDEST PUSH1 0x40 DUP1 MLOAD DUP1 DUP4 SUB PUSH1 0x1F NOT ADD DUP2 MSTORE SWAP2 DUP2 MSTORE DUP2 MLOAD PUSH1 0x20 SWAP3 DUP4 ADD KECCAK256 DUP4 MSTORE SWAP1 DUP3 ADD SWAP3 SWAP1 SWAP3 MSTORE ADD PUSH1 0x0 KECCAK256 DUP1 SLOAD PUSH1 0xFF NOT AND SWAP2 ISZERO ISZERO SWAP2 SWAP1 SWAP2 OR SWAP1 SSTORE POP JUMP JUMPDEST PUSH2 0x72D PUSH2 0xC78 JUMP JUMPDEST PUSH2 0x737 PUSH1 0x0 PUSH2 0xCA5 JUMP JUMPDEST JUMP JUMPDEST PUSH2 0x741 PUSH2 0xC78 JUMP JUMPDEST PUSH1 0x0 PUSH1 0x4 PUSH1 0x0 DUP4 PUSH1 0x40 MLOAD PUSH1 0x20 ADD PUSH2 0x6EE SWAP2 SWAP1 PUSH2 0x14A2 JUMP JUMPDEST PUSH2 0x760 PUSH2 0xC4E JUMP JUMPDEST PUSH1 0x4 PUSH1 0x0 CALLER PUSH1 0x40 MLOAD PUSH1 0x20 ADD PUSH2 0x775 SWAP2 SWAP1 PUSH2 0x14A2 JUMP JUMPDEST PUSH1 0x40 DUP1 MLOAD PUSH1 0x1F NOT DUP2 DUP5 SUB ADD DUP2 MSTORE SWAP2 DUP2 MSTORE DUP2 MLOAD PUSH1 0x20 SWAP3 DUP4 ADD KECCAK256 DUP4 MSTORE SWAP1 DUP3 ADD SWAP3 SWAP1 SWAP3 MSTORE ADD PUSH1 0x0 KECCAK256 SLOAD PUSH1 0xFF AND PUSH2 0x7E4 JUMPI PUSH1 0x40 MLOAD PUSH3 0x461BCD PUSH1 0xE5 SHL DUP2 MSTORE PUSH1 0x20 PUSH1 0x4 DUP3 ADD MSTORE PUSH1 0x17 PUSH1 0x24 DUP3 ADD MSTORE PUSH23 0x2737BA1030BABA3437B934BD32B2103B32B934B334B2B9 PUSH1 0x49 SHL PUSH1 0x44 DUP3 ADD MSTORE PUSH1 0x64 ADD PUSH2 0x46F JUMP JUMPDEST PUSH1 0x0 DUP5 DUP2 MSTORE PUSH1 0x3 PUSH1 0x20 MSTORE PUSH1 0x40 SWAP1 KECCAK256 SLOAD PUSH1 0xFF AND ISZERO PUSH2 0x843 JUMPI PUSH1 0x40 MLOAD PUSH3 0x461BCD PUSH1 0xE5 SHL DUP2 MSTORE PUSH1 0x20 PUSH1 0x4 DUP3 ADD MSTORE PUSH1 0x1B PUSH1 0x24 DUP3 ADD MSTORE PUSH32 0x43726564656E7469616C20616C72656164792076657269666965640000000000 PUSH1 0x44 DUP3 ADD MSTORE PUSH1 0x64 ADD PUSH2 0x46F JUMP JUMPDEST PUSH2 0x84D DUP7 DUP7 PUSH2 0xCF5 JUMP JUMPDEST PUSH2 0x889 JUMPI PUSH1 0x40 MLOAD PUSH3 0x461BCD PUSH1 0xE5 SHL DUP2 MSTORE PUSH1 0x20 PUSH1 0x4 DUP3 ADD MSTORE PUSH1 0xD PUSH1 0x24 DUP3 ADD MSTORE PUSH13 0x24B73B30B634B210383937B7B3 PUSH1 0x99 SHL PUSH1 0x44 DUP3 ADD MSTORE PUSH1 0x64 ADD PUSH2 0x46F JUMP JUMPDEST PUSH1 0x0 DUP6 PUSH1 0x5 PUSH1 0x20 MUL ADD MLOAD ISZERO ISZERO SWAP1 POP PUSH1 0x0 DUP7 PUSH1 0x6 PUSH1 0x20 MUL ADD MLOAD PUSH1 0x0 EQ ISZERO SWAP1 POP PUSH1 0x0 PUSH1 0x1 SWAP1 POP PUSH1 0x1 PUSH1 0x3 PUSH1 0x0 DUP10 DUP2 MSTORE PUSH1 0x20 ADD SWAP1 DUP2 MSTORE PUSH1 0x20 ADD PUSH1 0x0 KECCAK256 PUSH1 0x0 PUSH2 0x100 EXP DUP2 SLOAD DUP2 PUSH1 0xFF MUL NOT AND SWAP1 DUP4 ISZERO ISZERO MUL OR SWAP1 SSTORE POP PUSH1 0x40 MLOAD DUP1 PUSH2 0x120 ADD PUSH1 0x40 MSTORE DUP1 DUP9 DUP2 MSTORE PUSH1 0x20 ADD DUP8 DUP2 MSTORE PUSH1 0x20 ADD DUP7 DUP2 MSTORE PUSH1 0x20 ADD DUP6 DUP2 MSTORE PUSH1 0x20 ADD DUP5 ISZERO ISZERO DUP2 MSTORE PUSH1 0x20 ADD DUP4 ISZERO ISZERO DUP2 MSTORE PUSH1 0x20 ADD DUP3 ISZERO ISZERO DUP2 MSTORE PUSH1 0x20 ADD TIMESTAMP DUP2 MSTORE PUSH1 0x20 ADD CALLER PUSH1 0x1 PUSH1 0x1 PUSH1 0xA0 SHL SUB AND DUP2 MSTORE POP PUSH1 0x2 PUSH1 0x0 DUP10 DUP2 MSTORE PUSH1 0x20 ADD SWAP1 DUP2 MSTORE PUSH1 0x20 ADD PUSH1 0x0 KECCAK256 PUSH1 0x0 DUP3 ADD MLOAD DUP2 PUSH1 0x0 ADD SSTORE PUSH1 0x20 DUP3 ADD MLOAD DUP2 PUSH1 0x1 ADD SSTORE PUSH1 0x40 DUP3 ADD MLOAD DUP2 PUSH1 0x2 ADD SSTORE PUSH1 0x60 DUP3 ADD MLOAD DUP2 PUSH1 0x3 ADD SSTORE PUSH1 0x80 DUP3 ADD MLOAD DUP2 PUSH1 0x4 ADD PUSH1 0x0 PUSH2 0x100 EXP DUP2 SLOAD DUP2 PUSH1 0xFF MUL NOT AND SWAP1 DUP4 ISZERO ISZERO MUL OR SWAP1 SSTORE POP PUSH1 0xA0 DUP3 ADD MLOAD DUP2 PUSH1 0x4 ADD PUSH1 0x1 PUSH2 0x100 EXP DUP2 SLOAD DUP2 PUSH1 0xFF MUL NOT AND SWAP1 DUP4 ISZERO ISZERO MUL OR SWAP1 SSTORE POP PUSH1 0xC0 DUP3 ADD MLOAD DUP2 PUSH1 0x4 ADD PUSH1 0x2 PUSH2 0x100 EXP DUP2 SLOAD DUP2 PUSH1 0xFF MUL NOT AND SWAP1 DUP4 ISZERO ISZERO MUL OR SWAP1 SSTORE POP PUSH1 0xE0 DUP3 ADD MLOAD DUP2 PUSH1 0x5 ADD SSTORE PUSH2 0x100 DUP3 ADD MLOAD DUP2 PUSH1 0x6 ADD PUSH1 0x0 PUSH2 0x100 EXP DUP2 SLOAD DUP2 PUSH1 0x1 PUSH1 0x1 PUSH1 0xA0 SHL SUB MUL NOT AND SWAP1 DUP4 PUSH1 0x1 PUSH1 0x1 PUSH1 0xA0 SHL SUB AND MUL OR SWAP1 SSTORE POP SWAP1 POP POP CALLER PUSH1 0x1 PUSH1 0x1 PUSH1 0xA0 SHL SUB AND DUP7 DUP9 PUSH32 0xF50386F847C6B844322D38164465F2B8C82396DBEF4A23746B1A0C8C3C460C32 DUP9 DUP9 DUP9 DUP9 DUP9 PUSH1 0x40 MLOAD PUSH2 0xA63 SWAP6 SWAP5 SWAP4 SWAP3 SWAP2 SWAP1 SWAP5 DUP6 MSTORE PUSH1 0x20 DUP6 ADD SWAP4 SWAP1 SWAP4 MSTORE SWAP1 ISZERO ISZERO PUSH1 0x40 DUP5 ADD MSTORE ISZERO ISZERO PUSH1 0x60 DUP4 ADD MSTORE ISZERO ISZERO PUSH1 0x80 DUP3 ADD MSTORE PUSH1 0xA0 ADD SWAP1 JUMP JUMPDEST PUSH1 0x40 MLOAD DUP1 SWAP2 SUB SWAP1 LOG4 POP POP POP PUSH2 0x623 PUSH1 0x1 DUP1 SSTORE JUMP JUMPDEST PUSH2 0xA7F PUSH2 0xC78 JUMP JUMPDEST PUSH1 0x0 DUP2 DUP2 MSTORE PUSH1 0x3 PUSH1 0x20 MSTORE PUSH1 0x40 SWAP1 KECCAK256 SLOAD PUSH1 0xFF AND PUSH2 0xADD JUMPI PUSH1 0x40 MLOAD PUSH3 0x461BCD PUSH1 0xE5 SHL DUP2 MSTORE PUSH1 0x20 PUSH1 0x4 DUP3 ADD MSTORE PUSH1 0x17 PUSH1 0x24 DUP3 ADD MSTORE PUSH32 0x43726564656E7469616C206E6F74207665726966696564000000000000000000 PUSH1 0x44 DUP3 ADD MSTORE PUSH1 0x64 ADD PUSH2 0x46F JUMP JUMPDEST PUSH1 0x0 DUP2 DUP2 MSTORE PUSH1 0x2 PUSH1 0x20 DUP2 DUP2 MSTORE PUSH1 0x40 DUP1 DUP5 KECCAK256 DUP5 DUP2 SSTORE PUSH1 0x1 DUP2 ADD DUP6 SWAP1 SSTORE SWAP3 DUP4 ADD DUP5 SWAP1 SSTORE PUSH1 0x3 DUP1 DUP5 ADD DUP6 SWAP1 SSTORE PUSH1 0x4 DUP5 ADD DUP1 SLOAD PUSH3 0xFFFFFF NOT AND SWAP1 SSTORE PUSH1 0x5 DUP5 ADD DUP6 SWAP1 SSTORE PUSH1 0x6 SWAP1 SWAP4 ADD DUP1 SLOAD PUSH1 0x1 PUSH1 0x1 PUSH1 0xA0 SHL SUB NOT AND SWAP1 SSTORE SWAP2 SWAP1 MSTORE DUP1 DUP3 KECCAK256 DUP1 SLOAD PUSH1 0xFF NOT AND SWAP1 SSTORE MLOAD CALLER SWAP2 DUP4 SWAP2 PUSH32 0xD3196F598A360C115A1DE20D5A58021203793F1BF1A08EFE55EE14545779606D SWAP2 SWAP1 LOG3 POP JUMP JUMPDEST PUSH1 0x0 DUP3 DUP2 MSTORE PUSH1 0x2 PUSH1 0x20 DUP2 DUP2 MSTORE PUSH1 0x40 DUP1 DUP5 KECCAK256 DUP2 MLOAD PUSH2 0x120 DUP2 ADD DUP4 MSTORE DUP2 SLOAD DUP2 MSTORE PUSH1 0x1 DUP3 ADD SLOAD SWAP4 DUP2 ADD SWAP4 SWAP1 SWAP4 MSTORE SWAP3 DUP4 ADD SLOAD SWAP1 DUP3 ADD MSTORE PUSH1 0x3 DUP3 ADD SLOAD PUSH1 0x60 DUP3 ADD MSTORE PUSH1 0x4 DUP3 ADD SLOAD PUSH1 0xFF DUP1 DUP3 AND ISZERO ISZERO PUSH1 0x80 DUP5 ADD MSTORE PUSH2 0x100 DUP1 DUP4 DIV DUP3 AND ISZERO DUP1 ISZERO PUSH1 0xA0 DUP7 ADD DUP2 SWAP1 MSTORE PUSH3 0x10000 SWAP1 SWAP5 DIV SWAP1 SWAP3 AND ISZERO ISZERO PUSH1 0xC0 DUP6 ADD MSTORE PUSH1 0x5 DUP6 ADD SLOAD PUSH1 0xE0 DUP6 ADD MSTORE PUSH1 0x6 SWAP1 SWAP5 ADD SLOAD PUSH1 0x1 PUSH1 0x1 PUSH1 0xA0 SHL SUB AND SWAP4 DUP4 ADD SWAP4 SWAP1 SWAP4 MSTORE SWAP1 SWAP2 PUSH2 0xC08 JUMPI POP DUP3 DUP2 PUSH1 0x40 ADD MLOAD LT ISZERO JUMPDEST SWAP5 SWAP4 POP POP POP POP JUMP JUMPDEST PUSH2 0xC18 PUSH2 0xC78 JUMP JUMPDEST PUSH1 0x1 PUSH1 0x1 PUSH1 0xA0 SHL SUB DUP2 AND PUSH2 0xC42 JUMPI PUSH1 0x40 MLOAD PUSH4 0x1E4FBDF7 PUSH1 0xE0 SHL DUP2 MSTORE PUSH1 0x0 PUSH1 0x4 DUP3 ADD MSTORE PUSH1 0x24 ADD PUSH2 0x46F JUMP JUMPDEST PUSH2 0xC4B DUP2 PUSH2 0xCA5 JUMP JUMPDEST POP JUMP JUMPDEST PUSH1 0x2 PUSH1 0x1 SLOAD SUB PUSH2 0xC71 JUMPI PUSH1 0x40 MLOAD PUSH4 0x3EE5AEB5 PUSH1 0xE0 SHL DUP2 MSTORE PUSH1 0x4 ADD PUSH1 0x40 MLOAD DUP1 SWAP2 SUB SWAP1 REVERT JUMPDEST PUSH1 0x2 PUSH1 0x1 SSTORE JUMP JUMPDEST PUSH1 0x0 SLOAD PUSH1 0x1 PUSH1 0x1 PUSH1 0xA0 SHL SUB AND CALLER EQ PUSH2 0x737 JUMPI PUSH1 0x40 MLOAD PUSH4 0x118CDAA7 PUSH1 0xE0 SHL DUP2 MSTORE CALLER PUSH1 0x4 DUP3 ADD MSTORE PUSH1 0x24 ADD PUSH2 0x46F JUMP JUMPDEST PUSH1 0x0 DUP1 SLOAD PUSH1 0x1 PUSH1 0x1 PUSH1 0xA0 SHL SUB DUP4 DUP2 AND PUSH1 0x1 PUSH1 0x1 PUSH1 0xA0 SHL SUB NOT DUP4 AND DUP2 OR DUP5 SSTORE PUSH1 0x40 MLOAD SWAP2 SWAP1 SWAP3 AND SWAP3 DUP4 SWAP2 PUSH32 0x8BE0079C531659141344CD1FD0A4F28419497F9722A3DAAFE3B4186F6B6457E0 SWAP2 SWAP1 LOG3 POP POP JUMP JUMPDEST PUSH1 0x0 PUSH2 0xD04 DUP4 PUSH1 0x0 ADD MLOAD PUSH2 0xE6A JUMP JUMPDEST PUSH2 0xD42 JUMPI PUSH1 0x40 MLOAD PUSH3 0x461BCD PUSH1 0xE5 SHL DUP2 MSTORE PUSH1 0x20 PUSH1 0x4 DUP3 ADD MSTORE PUSH1 0xF PUSH1 0x24 DUP3 ADD MSTORE PUSH15 0x496E76616C69642070726F6F662E61 PUSH1 0x88 SHL PUSH1 0x44 DUP3 ADD MSTORE PUSH1 0x64 ADD PUSH2 0x46F JUMP JUMPDEST PUSH2 0xD4F DUP4 PUSH1 0x40 ADD MLOAD PUSH2 0xE6A JUMP JUMPDEST PUSH2 0xD8D JUMPI PUSH1 0x40 MLOAD PUSH3 0x461BCD PUSH1 0xE5 SHL DUP2 MSTORE PUSH1 0x20 PUSH1 0x4 DUP3 ADD MSTORE PUSH1 0xF PUSH1 0x24 DUP3 ADD MSTORE PUSH15 0x496E76616C69642070726F6F662E63 PUSH1 0x88 SHL PUSH1 0x44 DUP3 ADD MSTORE PUSH1 0x64 ADD PUSH2 0x46F JUMP JUMPDEST PUSH2 0xD9A DUP4 PUSH1 0x20 ADD MLOAD PUSH2 0xEA6 JUMP JUMPDEST PUSH2 0xDD8 JUMPI PUSH1 0x40 MLOAD PUSH3 0x461BCD PUSH1 0xE5 SHL DUP2 MSTORE PUSH1 0x20 PUSH1 0x4 DUP3 ADD MSTORE PUSH1 0xF PUSH1 0x24 DUP3 ADD MSTORE PUSH15 0x24B73B30B634B210383937B7B31731 PUSH1 0x89 SHL PUSH1 0x44 DUP3 ADD MSTORE PUSH1 0x64 ADD PUSH2 0x46F JUMP JUMPDEST PUSH1 0x0 JUMPDEST PUSH1 0x7 DUP2 LT ISZERO PUSH2 0xE60 JUMPI PUSH1 0x0 DUP1 MLOAD PUSH1 0x20 PUSH2 0x15DB DUP4 CODECOPY DUP2 MLOAD SWAP2 MSTORE DUP4 DUP3 PUSH1 0x7 DUP2 LT PUSH2 0xE05 JUMPI PUSH2 0xE05 PUSH2 0x14BF JUMP JUMPDEST PUSH1 0x20 MUL ADD MLOAD LT PUSH2 0xE4E JUMPI PUSH1 0x40 MLOAD PUSH3 0x461BCD PUSH1 0xE5 SHL DUP2 MSTORE PUSH1 0x20 PUSH1 0x4 DUP3 ADD MSTORE PUSH1 0x14 PUSH1 0x24 DUP3 ADD MSTORE PUSH20 0x125B9D985B1A59081C1D589B1A58C81A5B9C1D5D PUSH1 0x62 SHL PUSH1 0x44 DUP3 ADD MSTORE PUSH1 0x64 ADD PUSH2 0x46F JUMP JUMPDEST DUP1 PUSH2 0xE58 DUP2 PUSH2 0x15B3 JUMP JUMPDEST SWAP2 POP POP PUSH2 0xDDB JUMP JUMPDEST POP PUSH1 0x1 SWAP4 SWAP3 POP POP POP JUMP JUMPDEST DUP1 MLOAD PUSH1 0x0 SWAP1 PUSH1 0x0 DUP1 MLOAD PUSH1 0x20 PUSH2 0x15DB DUP4 CODECOPY DUP2 MLOAD SWAP2 MSTORE GT DUP1 ISZERO PUSH2 0xEA0 JUMPI POP PUSH1 0x0 DUP1 MLOAD PUSH1 0x20 PUSH2 0x15DB DUP4 CODECOPY DUP2 MLOAD SWAP2 MSTORE DUP3 PUSH1 0x1 JUMPDEST PUSH1 0x20 MUL ADD MLOAD LT JUMPDEST SWAP3 SWAP2 POP POP JUMP JUMPDEST DUP1 MLOAD MLOAD PUSH1 0x0 SWAP1 PUSH1 0x0 DUP1 MLOAD PUSH1 0x20 PUSH2 0x15DB DUP4 CODECOPY DUP2 MLOAD SWAP2 MSTORE GT DUP1 ISZERO PUSH2 0xEDA JUMPI POP DUP2 MLOAD PUSH1 0x20 ADD MLOAD PUSH1 0x0 DUP1 MLOAD PUSH1 0x20 PUSH2 0x15DB DUP4 CODECOPY DUP2 MLOAD SWAP2 MSTORE GT JUMPDEST DUP1 ISZERO PUSH2 0xEF8 JUMPI POP PUSH1 0x20 DUP3 ADD MLOAD MLOAD PUSH1 0x0 DUP1 MLOAD PUSH1 0x20 PUSH2 0x15DB DUP4 CODECOPY DUP2 MLOAD SWAP2 MSTORE GT JUMPDEST DUP1 ISZERO PUSH2 0xEA0 JUMPI POP PUSH1 0x20 DUP3 ADD MLOAD PUSH1 0x0 DUP1 MLOAD PUSH1 0x20 PUSH2 0x15DB DUP4 CODECOPY DUP2 MLOAD SWAP2 MSTORE SWAP1 PUSH1 0x1 PUSH2 0xE99 JUMP JUMPDEST PUSH1 0x0 PUSH1 0x20 DUP3 DUP5 SUB SLT ISZERO PUSH2 0xF2D JUMPI PUSH1 0x0 DUP1 REVERT JUMPDEST POP CALLDATALOAD SWAP2 SWAP1 POP JUMP JUMPDEST PUSH1 0x0 PUSH2 0x120 DUP3 ADD SWAP1 POP DUP3 MLOAD DUP3 MSTORE PUSH1 0x20 DUP4 ADD MLOAD PUSH1 0x20 DUP4 ADD MSTORE PUSH1 0x40 DUP4 ADD MLOAD PUSH1 0x40 DUP4 ADD MSTORE PUSH1 0x60 DUP4 ADD MLOAD PUSH1 0x60 DUP4 ADD MSTORE PUSH1 0x80 DUP4 ADD MLOAD ISZERO ISZERO PUSH1 0x80 DUP4 ADD MSTORE PUSH1 0xA0 DUP4 ADD MLOAD ISZERO ISZERO PUSH1 0xA0 DUP4 ADD MSTORE PUSH1 0xC0 DUP4 ADD MLOAD PUSH2 0xF8A PUSH1 0xC0 DUP5 ADD DUP3 ISZERO ISZERO SWAP1 MSTORE JUMP JUMPDEST POP PUSH1 0xE0 DUP4 ADD MLOAD PUSH1 0xE0 DUP4 ADD MSTORE PUSH2 0x100 DUP1 DUP5 ADD MLOAD PUSH2 0xFB0 DUP3 DUP6 ADD DUP3 PUSH1 0x1 PUSH1 0x1 PUSH1 0xA0 SHL SUB AND SWAP1 MSTORE JUMP JUMPDEST POP POP SWAP3 SWAP2 POP POP JUMP JUMPDEST PUSH4 0x4E487B71 PUSH1 0xE0 SHL PUSH1 0x0 MSTORE PUSH1 0x41 PUSH1 0x4 MSTORE PUSH1 0x24 PUSH1 0x0 REVERT JUMPDEST PUSH1 0x40 MLOAD PUSH1 0x60 DUP2 ADD PUSH8 0xFFFFFFFFFFFFFFFF DUP2 GT DUP3 DUP3 LT OR ISZERO PUSH2 0xFF1 JUMPI PUSH2 0xFF1 PUSH2 0xFB8 JUMP JUMPDEST PUSH1 0x40 MSTORE SWAP1 JUMP JUMPDEST PUSH1 0x40 DUP1 MLOAD SWAP1 DUP2 ADD PUSH8 0xFFFFFFFFFFFFFFFF DUP2 GT DUP3 DUP3 LT OR ISZERO PUSH2 0xFF1 JUMPI PUSH2 0xFF1 PUSH2 0xFB8 JUMP JUMPDEST PUSH1 0x40 MLOAD PUSH1 0x1F DUP3 ADD PUSH1 0x1F NOT AND DUP2 ADD PUSH8 0xFFFFFFFFFFFFFFFF DUP2 GT DUP3 DUP3 LT OR ISZERO PUSH2 0x1043 JUMPI PUSH2 0x1043 PUSH2 0xFB8 JUMP JUMPDEST PUSH1 0x40 MSTORE SWAP2 SWAP1 POP JUMP JUMPDEST PUSH1 0x0 PUSH8 0xFFFFFFFFFFFFFFFF DUP3 GT ISZERO PUSH2 0x1065 JUMPI PUSH2 0x1065 PUSH2 0xFB8 JUMP JUMPDEST POP PUSH1 0x5 SHL PUSH1 0x20 ADD SWAP1 JUMP JUMPDEST PUSH1 0x0 DUP3 PUSH1 0x1F DUP4 ADD SLT PUSH2 0x1080 JUMPI PUSH1 0x0 DUP1 REVERT JUMPDEST PUSH2 0x1088 PUSH2 0xFF7 JUMP JUMPDEST DUP1 PUSH1 0x40 DUP5 ADD DUP6 DUP2 GT ISZERO PUSH2 0x109A JUMPI PUSH1 0x0 DUP1 REVERT JUMPDEST DUP5 JUMPDEST DUP2 DUP2 LT ISZERO PUSH2 0x10B4 JUMPI DUP1 CALLDATALOAD DUP5 MSTORE PUSH1 0x20 SWAP4 DUP5 ADD SWAP4 ADD PUSH2 0x109C JUMP JUMPDEST POP SWAP1 SWAP6 SWAP5 POP POP POP POP POP JUMP JUMPDEST PUSH1 0x0 PUSH2 0x100 DUP3 DUP5 SUB SLT ISZERO PUSH2 0x10D2 JUMPI PUSH1 0x0 DUP1 REVERT JUMPDEST PUSH2 0x10DA PUSH2 0xFCE JUMP JUMPDEST SWAP1 POP PUSH2 0x10E6 DUP4 DUP4 PUSH2 0x106F JUMP JUMPDEST DUP2 MSTORE PUSH1 0x40 DUP4 PUSH1 0x5F DUP5 ADD SLT PUSH2 0x10F9 JUMPI PUSH1 0x0 DUP1 REVERT JUMPDEST PUSH2 0x1101 PUSH2 0xFF7 JUMP JUMPDEST DUP1 PUSH1 0xC0 DUP6 ADD DUP7 DUP2 GT ISZERO PUSH2 0x1113 JUMPI PUSH1 0x0 DUP1 REVERT JUMPDEST DUP4 DUP7 ADD JUMPDEST DUP2 DUP2 LT ISZERO PUSH2 0x1138 JUMPI PUSH2 0x1129 DUP9 DUP3 PUSH2 0x106F JUMP JUMPDEST DUP5 MSTORE PUSH1 0x20 SWAP1 SWAP4 ADD SWAP3 DUP5 ADD PUSH2 0x1117 JUMP JUMPDEST POP DUP2 PUSH1 0x20 DUP7 ADD MSTORE PUSH2 0x1149 DUP8 DUP3 PUSH2 0x106F JUMP JUMPDEST DUP5 DUP7 ADD MSTORE POP POP POP POP SWAP3 SWAP2 POP POP JUMP JUMPDEST PUSH1 0x0 DUP3 PUSH1 0x1F DUP4 ADD SLT PUSH2 0x1168 JUMPI PUSH1 0x0 DUP1 REVERT JUMPDEST DUP2 CALLDATALOAD PUSH1 0x20 PUSH2 0x117D PUSH2 0x1178 DUP4 PUSH2 0x104B JUMP JUMPDEST PUSH2 0x101A JUMP JUMPDEST DUP3 DUP2 MSTORE PUSH1 0x8 SWAP3 SWAP1 SWAP3 SHL DUP5 ADD DUP2 ADD SWAP2 DUP2 DUP2 ADD SWAP1 DUP7 DUP5 GT ISZERO PUSH2 0x119C JUMPI PUSH1 0x0 DUP1 REVERT JUMPDEST DUP3 DUP7 ADD JUMPDEST DUP5 DUP2 LT ISZERO PUSH2 0x11C1 JUMPI PUSH2 0x11B2 DUP9 DUP3 PUSH2 0x10BF JUMP JUMPDEST DUP4 MSTORE SWAP2 DUP4 ADD SWAP2 PUSH2 0x100 ADD PUSH2 0x11A0 JUMP JUMPDEST POP SWAP7 SWAP6 POP POP POP POP POP POP JUMP JUMPDEST PUSH1 0x0 DUP3 PUSH1 0x1F DUP4 ADD SLT PUSH2 0x11DD JUMPI PUSH1 0x0 DUP1 REVERT JUMPDEST PUSH1 0x40 MLOAD PUSH1 0xE0 DUP2 ADD DUP2 DUP2 LT PUSH8 0xFFFFFFFFFFFFFFFF DUP3 GT OR ISZERO PUSH2 0x1200 JUMPI PUSH2 0x1200 PUSH2 0xFB8 JUMP JUMPDEST PUSH1 0x40 MSTORE DUP1 PUSH1 0xE0 DUP5 ADD DUP6 DUP2 GT ISZERO PUSH2 0x1215 JUMPI PUSH1 0x0 DUP1 REVERT JUMPDEST DUP5 JUMPDEST DUP2 DUP2 LT ISZERO PUSH2 0x122F JUMPI DUP1 CALLDATALOAD DUP4 MSTORE PUSH1 0x20 SWAP3 DUP4 ADD SWAP3 ADD PUSH2 0x1217 JUMP JUMPDEST POP SWAP2 SWAP6 SWAP5 POP POP POP POP POP JUMP JUMPDEST PUSH1 0x0 DUP3 PUSH1 0x1F DUP4 ADD SLT PUSH2 0x124B JUMPI PUSH1 0x0 DUP1 REVERT JUMPDEST DUP2 CALLDATALOAD PUSH1 0x20 PUSH2 0x125B PUSH2 0x1178 DUP4 PUSH2 0x104B JUMP JUMPDEST DUP3 DUP2 MSTORE PUSH1 0xE0 SWAP3 DUP4 MUL DUP6 ADD DUP3 ADD SWAP3 DUP3 DUP3 ADD SWAP2 SWAP1 DUP8 DUP6 GT ISZERO PUSH2 0x127A JUMPI PUSH1 0x0 DUP1 REVERT JUMPDEST DUP4 DUP8 ADD JUMPDEST DUP6 DUP2 LT ISZERO PUSH2 0x129D JUMPI PUSH2 0x1290 DUP10 DUP3 PUSH2 0x11CC JUMP JUMPDEST DUP5 MSTORE SWAP3 DUP5 ADD SWAP3 DUP2 ADD PUSH2 0x127E JUMP JUMPDEST POP SWAP1 SWAP8 SWAP7 POP POP POP POP POP POP POP JUMP JUMPDEST PUSH1 0x0 DUP3 PUSH1 0x1F DUP4 ADD SLT PUSH2 0x12BB JUMPI PUSH1 0x0 DUP1 REVERT JUMPDEST DUP2 CALLDATALOAD PUSH1 0x20 PUSH2 0x12CB PUSH2 0x1178 DUP4 PUSH2 0x104B JUMP JUMPDEST DUP3 DUP2 MSTORE PUSH1 0x5 SWAP3 SWAP1 SWAP3 SHL DUP5 ADD DUP2 ADD SWAP2 DUP2 DUP2 ADD SWAP1 DUP7 DUP5 GT ISZERO PUSH2 0x12EA JUMPI PUSH1 0x0 DUP1 REVERT JUMPDEST DUP3 DUP7 ADD JUMPDEST DUP5 DUP2 LT ISZERO PUSH2 0x11C1 JUMPI DUP1 CALLDATALOAD DUP4 MSTORE SWAP2 DUP4 ADD SWAP2 DUP4 ADD PUSH2 0x12EE JUMP JUMPDEST PUSH1 0x0 DUP1 PUSH1 0x0 DUP1 PUSH1 0x0 DUP1 PUSH1 0xC0 DUP8 DUP10 SUB SLT ISZERO PUSH2 0x131E JUMPI PUSH1 0x0 DUP1 REVERT JUMPDEST DUP7 CALLDATALOAD PUSH8 0xFFFFFFFFFFFFFFFF DUP1 DUP3 GT ISZERO PUSH2 0x1336 JUMPI PUSH1 0x0 DUP1 REVERT JUMPDEST PUSH2 0x1342 DUP11 DUP4 DUP12 ADD PUSH2 0x1157 JUMP JUMPDEST SWAP8 POP PUSH1 0x20 DUP10 ADD CALLDATALOAD SWAP2 POP DUP1 DUP3 GT ISZERO PUSH2 0x1358 JUMPI PUSH1 0x0 DUP1 REVERT JUMPDEST PUSH2 0x1364 DUP11 DUP4 DUP12 ADD PUSH2 0x123A JUMP JUMPDEST SWAP7 POP PUSH1 0x40 DUP10 ADD CALLDATALOAD SWAP2 POP DUP1 DUP3 GT ISZERO PUSH2 0x137A JUMPI PUSH1 0x0 DUP1 REVERT JUMPDEST PUSH2 0x1386 DUP11 DUP4 DUP12 ADD PUSH2 0x12AA JUMP JUMPDEST SWAP6 POP PUSH1 0x60 DUP10 ADD CALLDATALOAD SWAP2 POP DUP1 DUP3 GT ISZERO PUSH2 0x139C JUMPI PUSH1 0x0 DUP1 REVERT JUMPDEST PUSH2 0x13A8 DUP11 DUP4 DUP12 ADD PUSH2 0x12AA JUMP JUMPDEST SWAP5 POP PUSH1 0x80 DUP10 ADD CALLDATALOAD SWAP2 POP DUP1 DUP3 GT ISZERO PUSH2 0x13BE JUMPI PUSH1 0x0 DUP1 REVERT JUMPDEST PUSH2 0x13CA DUP11 DUP4 DUP12 ADD PUSH2 0x12AA JUMP JUMPDEST SWAP4 POP PUSH1 0xA0 DUP10 ADD CALLDATALOAD SWAP2 POP DUP1 DUP3 GT ISZERO PUSH2 0x13E0 JUMPI PUSH1 0x0 DUP1 REVERT JUMPDEST POP PUSH2 0x13ED DUP10 DUP3 DUP11 ADD PUSH2 0x12AA JUMP JUMPDEST SWAP2 POP POP SWAP3 SWAP6 POP SWAP3 SWAP6 POP SWAP3 SWAP6 JUMP JUMPDEST PUSH1 0x0 PUSH1 0x20 DUP3 DUP5 SUB SLT ISZERO PUSH2 0x140C JUMPI PUSH1 0x0 DUP1 REVERT JUMPDEST DUP2 CALLDATALOAD PUSH1 0x1 PUSH1 0x1 PUSH1 0xA0 SHL SUB DUP2 AND DUP2 EQ PUSH2 0x6C8 JUMPI PUSH1 0x0 DUP1 REVERT JUMPDEST PUSH1 0x0 DUP1 PUSH1 0x0 DUP1 PUSH1 0x0 DUP1 PUSH2 0x260 DUP8 DUP10 SUB SLT ISZERO PUSH2 0x143D JUMPI PUSH1 0x0 DUP1 REVERT JUMPDEST PUSH2 0x1447 DUP9 DUP9 PUSH2 0x10BF JUMP JUMPDEST SWAP6 POP PUSH2 0x1457 DUP9 PUSH2 0x100 DUP10 ADD PUSH2 0x11CC JUMP JUMPDEST SWAP6 SWAP9 SWAP6 SWAP8 POP POP POP POP PUSH2 0x1E0 DUP5 ADD CALLDATALOAD SWAP4 PUSH2 0x200 DUP2 ADD CALLDATALOAD SWAP4 PUSH2 0x220 DUP3 ADD CALLDATALOAD SWAP4 POP PUSH2 0x240 SWAP1 SWAP2 ADD CALLDATALOAD SWAP2 POP JUMP JUMPDEST PUSH1 0x0 DUP1 PUSH1 0x40 DUP4 DUP6 SUB SLT ISZERO PUSH2 0x1493 JUMPI PUSH1 0x0 DUP1 REVERT JUMPDEST POP POP DUP1 CALLDATALOAD SWAP3 PUSH1 0x20 SWAP1 SWAP2 ADD CALLDATALOAD SWAP2 POP JUMP JUMPDEST PUSH1 0x60 SWAP2 SWAP1 SWAP2 SHL PUSH12 0xFFFFFFFFFFFFFFFFFFFFFFFF NOT AND DUP2 MSTORE PUSH1 0x14 ADD SWAP1 JUMP JUMPDEST PUSH4 0x4E487B71 PUSH1 0xE0 SHL PUSH1 0x0 MSTORE PUSH1 0x32 PUSH1 0x4 MSTORE PUSH1 0x24 PUSH1 0x0 REVERT JUMPDEST DUP1 PUSH1 0x0 JUMPDEST PUSH1 0x2 DUP2 LT ISZERO PUSH2 0x14F8 JUMPI DUP2 MLOAD DUP5 MSTORE PUSH1 0x20 SWAP4 DUP5 ADD SWAP4 SWAP1 SWAP2 ADD SWAP1 PUSH1 0x1 ADD PUSH2 0x14D9 JUMP JUMPDEST POP POP POP POP JUMP JUMPDEST DUP1 PUSH1 0x0 JUMPDEST PUSH1 0x7 DUP2 LT ISZERO PUSH2 0x14F8 JUMPI DUP2 MLOAD DUP5 MSTORE PUSH1 0x20 SWAP4 DUP5 ADD SWAP4 SWAP1 SWAP2 ADD SWAP1 PUSH1 0x1 ADD PUSH2 0x1502 JUMP JUMPDEST PUSH1 0x0 PUSH2 0x260 DUP3 ADD SWAP1 POP PUSH2 0x1535 DUP3 DUP10 MLOAD PUSH2 0x14D5 JUMP JUMPDEST PUSH1 0x20 DUP1 DUP10 ADD MLOAD PUSH1 0x40 DUP1 DUP6 ADD PUSH1 0x0 JUMPDEST PUSH1 0x2 DUP2 LT ISZERO PUSH2 0x1567 JUMPI PUSH2 0x1557 DUP3 DUP6 MLOAD PUSH2 0x14D5 JUMP JUMPDEST SWAP3 DUP5 ADD SWAP3 SWAP1 DUP3 ADD SWAP1 PUSH1 0x1 ADD PUSH2 0x1543 JUMP JUMPDEST POP POP DUP11 ADD MLOAD SWAP2 POP PUSH2 0x157D SWAP1 POP PUSH1 0xC0 DUP5 ADD DUP3 PUSH2 0x14D5 JUMP JUMPDEST POP PUSH2 0x158C PUSH2 0x100 DUP4 ADD DUP9 PUSH2 0x14FE JUMP JUMPDEST DUP6 PUSH2 0x1E0 DUP4 ADD MSTORE DUP5 PUSH2 0x200 DUP4 ADD MSTORE DUP4 PUSH2 0x220 DUP4 ADD MSTORE DUP3 PUSH2 0x240 DUP4 ADD MSTORE SWAP8 SWAP7 POP POP POP POP POP POP POP JUMP JUMPDEST PUSH1 0x0 PUSH1 0x1 DUP3 ADD PUSH2 0x15D3 JUMPI PUSH4 0x4E487B71 PUSH1 0xE0 SHL PUSH1 0x0 MSTORE PUSH1 0x11 PUSH1 0x4 MSTORE PUSH1 0x24 PUSH1 0x0 REVERT JUMPDEST POP PUSH1 0x1 ADD SWAP1 JUMP INVALID ADDRESS PUSH5 0x4E72E131A0 0x29 0xB8 POP GASLIMIT 0xB6 DUP2 DUP2 PC 0x5D SWAP8 DUP2 PUSH11 0x916871CA8D3C208C16D87C REVERT SELFBALANCE LOG2 PUSH5 0x6970667358 0x22 SLT KECCAK256 SWAP4 SWAP6 DELEGATECALL 0xF9 0xB9 0xE0 0xC8 0x4A 0xB5 0xFB 0x2C REVERT 0xD5 0xC ADD EXTCODESIZE ADDRESS PUSH32 0xB68D25DAC00DC442010E05B80B264736F6C6343000814003300000000000000 "},"methodIdentifiers":{"addAuthorizedVerifier(address)":"6e607fa7","authorizedVerifiers(bytes32)":"f462ed94","batchVerifyCredentials((uint256[2],uint256[2][2],uint256[2])[],uint256[7][],bytes32[],bytes32[],uint256[],uint256[])":"5c5d2785","getCredentialVerification(bytes32)":"5ae4776f","getVerificationStats()":"efcf6a8d","isCredentialValid(bytes32)":"6dc158eb","meetsMinimumScore(bytes32,uint256)":"e4518e12","owner()":"8da5cb5b","removeAuthorizedVerifier(address)":"a65a2c3e","renounceOwnership()":"715018a6","revokeCredential(bytes32)":"ca6eec78","transferOwnership(address)":"f2fde38b","usedCredentialHashes(bytes32)":"3d7f6e2c","verifiedCredentials(bytes32)":"9027c350","verifyCredential((uint256[2],uint256[2][2],uint256[2]),uint256[7],bytes32,bytes32,uint256,uint256)":"b2d65b0f"}}}}}