{
  "_format": "hh-sol-artifact-1",
  "contractName": "ZKPVerifier",
  "sourceName": "contracts/ZKPVerifier.sol",
  "abi": [
    {
      "inputs": [],
      "stateMutability": "nonpayable",
      "type": "constructor"
    },
    {
      "inputs": [
        {
          "internalType": "address",
          "name": "owner",
          "type": "address"
        }
      ],
      "name": "OwnableInvalidOwner",
      "type": "error"
    },
    {
      "inputs": [
        {
          "internalType": "address",
          "name": "account",
          "type": "address"
        }
      ],
      "name": "OwnableUnauthorizedAccount",
      "type": "error"
    },
    {
      "inputs": [],
      "name": "ReentrancyGuardReentrantCall",
      "type": "error"
    },
    {
      "anonymous": false,
      "inputs": [
        {
          "indexed": true,
          "internalType": "bytes32",
          "name": "commitment",
          "type": "bytes32"
        },
        {
          "indexed": true,
          "internalType": "address",
          "name": "sender",
          "type": "address"
        },
        {
          "indexed": false,
          "internalType": "uint256",
          "name": "amount",
          "type": "uint256"
        }
      ],
      "name": "CommitmentDeposited",
      "type": "event"
    },
    {
      "anonymous": false,
      "inputs": [
        {
          "indexed": true,
          "internalType": "bytes32",
          "name": "nullifier",
          "type": "bytes32"
        },
        {
          "indexed": true,
          "internalType": "address",
          "name": "recipient",
          "type": "address"
        },
        {
          "indexed": false,
          "internalType": "uint256",
          "name": "amount",
          "type": "uint256"
        }
      ],
      "name": "FundsWithdrawn",
      "type": "event"
    },
    {
      "anonymous": false,
      "inputs": [
        {
          "indexed": true,
          "internalType": "address",
          "name": "previousOwner",
          "type": "address"
        },
        {
          "indexed": true,
          "internalType": "address",
          "name": "newOwner",
          "type": "address"
        }
      ],
      "name": "OwnershipTransferred",
      "type": "event"
    },
    {
      "anonymous": false,
      "inputs": [
        {
          "indexed": true,
          "internalType": "bytes32",
          "name": "commitment",
          "type": "bytes32"
        },
        {
          "indexed": true,
          "internalType": "bytes32",
          "name": "nullifier",
          "type": "bytes32"
        },
        {
          "indexed": true,
          "internalType": "address",
          "name": "recipient",
          "type": "address"
        },
        {
          "indexed": false,
          "internalType": "uint256",
          "name": "amount",
          "type": "uint256"
        }
      ],
      "name": "ProofVerified",
      "type": "event"
    },
    {
      "inputs": [
        {
          "internalType": "bytes32",
          "name": "commitment",
          "type": "bytes32"
        }
      ],
      "name": "deposit",
      "outputs": [],
      "stateMutability": "payable",
      "type": "function"
    },
    {
      "inputs": [],
      "name": "emergencyWithdraw",
      "outputs": [],
      "stateMutability": "nonpayable",
      "type": "function"
    },
    {
      "inputs": [],
      "name": "getBalance",
      "outputs": [
        {
          "internalType": "uint256",
          "name": "",
          "type": "uint256"
        }
      ],
      "stateMutability": "view",
      "type": "function"
    },
    {
      "inputs": [
        {
          "internalType": "bytes32",
          "name": "commitment",
          "type": "bytes32"
        }
      ],
      "name": "isCommitmentUsed",
      "outputs": [
        {
          "internalType": "bool",
          "name": "",
          "type": "bool"
        }
      ],
      "stateMutability": "view",
      "type": "function"
    },
    {
      "inputs": [
        {
          "internalType": "bytes32",
          "name": "nullifier",
          "type": "bytes32"
        }
      ],
      "name": "isNullifierUsed",
      "outputs": [
        {
          "internalType": "bool",
          "name": "",
          "type": "bool"
        }
      ],
      "stateMutability": "view",
      "type": "function"
    },
    {
      "inputs": [],
      "name": "owner",
      "outputs": [
        {
          "internalType": "address",
          "name": "",
          "type": "address"
        }
      ],
      "stateMutability": "view",
      "type": "function"
    },
    {
      "inputs": [],
      "name": "renounceOwnership",
      "outputs": [],
      "stateMutability": "nonpayable",
      "type": "function"
    },
    {
      "inputs": [
        {
          "internalType": "uint256[2]",
          "name": "_alpha1",
          "type": "uint256[2]"
        },
        {
          "internalType": "uint256[2][2]",
          "name": "_beta2",
          "type": "uint256[2][2]"
        },
        {
          "internalType": "uint256[2][2]",
          "name": "_gamma2",
          "type": "uint256[2][2]"
        },
        {
          "internalType": "uint256[2][2]",
          "name": "_delta2",
          "type": "uint256[2][2]"
        },
        {
          "internalType": "uint256[2][]",
          "name": "_ic",
          "type": "uint256[2][]"
        }
      ],
      "name": "setVerificationKey",
      "outputs": [],
      "stateMutability": "nonpayable",
      "type": "function"
    },
    {
      "inputs": [
        {
          "internalType": "address",
          "name": "newOwner",
          "type": "address"
        }
      ],
      "name": "transferOwnership",
      "outputs": [],
      "stateMutability": "nonpayable",
      "type": "function"
    },
    {
      "inputs": [
        {
          "internalType": "bytes32",
          "name": "",
          "type": "bytes32"
        }
      ],
      "name": "usedCommitments",
      "outputs": [
        {
          "internalType": "bool",
          "name": "",
          "type": "bool"
        }
      ],
      "stateMutability": "view",
      "type": "function"
    },
    {
      "inputs": [
        {
          "internalType": "bytes32",
          "name": "",
          "type": "bytes32"
        }
      ],
      "name": "usedNullifiers",
      "outputs": [
        {
          "internalType": "bool",
          "name": "",
          "type": "bool"
        }
      ],
      "stateMutability": "view",
      "type": "function"
    },
    {
      "inputs": [
        {
          "components": [
            {
              "internalType": "uint256[2]",
              "name": "a",
              "type": "uint256[2]"
            },
            {
              "internalType": "uint256[2][2]",
              "name": "b",
              "type": "uint256[2][2]"
            },
            {
              "internalType": "uint256[2]",
              "name": "c",
              "type": "uint256[2]"
            }
          ],
          "internalType": "struct ZKPVerifier.Proof",
          "name": "proof",
          "type": "tuple"
        },
        {
          "internalType": "uint256[2]",
          "name": "input",
          "type": "uint256[2]"
        },
        {
          "internalType": "bytes32",
          "name": "nullifier",
          "type": "bytes32"
        },
        {
          "internalType": "address payable",
          "name": "recipient",
          "type": "address"
        },
        {
          "internalType": "uint256",
          "name": "amount",
          "type": "uint256"
        }
      ],
      "name": "verifyAndWithdraw",
      "outputs": [],
      "stateMutability": "nonpayable",
      "type": "function"
    }
  ],
  "bytecode": "0x608060405234801561001057600080fd5b50338061003757604051631e4fbdf760e01b81526000600482015260240160405180910390fd5b6100408161004a565b506001805561009a565b600080546001600160a01b038381166001600160a01b0319831681178455604051919092169283917f8be0079c531659141344cd1fd0a4f28419497f9722a3daafe3b4186f6b6457e09190a35050565b610ef3806100a96000396000f3fe6080604052600436106100a75760003560e01c80639140203911610064578063914020391461019b578063b214faa5146101cb578063b61b395c146101de578063bd17bac91461020e578063db2e21bc1461022e578063f2fde38b1461024357600080fd5b806312065fe0146100ac578063206137aa146100cc57806321207cf01461010c57806322dc7b4c1461012e578063715018a61461015e5780638da5cb5b14610173575b600080fd5b3480156100b857600080fd5b506040514781526020015b60405180910390f35b3480156100d857600080fd5b506100fc6100e7366004610b7f565b60036020526000908152604090205460ff1681565b60405190151581526020016100c3565b34801561011857600080fd5b5061012c610127366004610cbc565b610263565b005b34801561013a57600080fd5b506100fc610149366004610b7f565b60009081526003602052604090205460ff1690565b34801561016a57600080fd5b5061012c610537565b34801561017f57600080fd5b506000546040516001600160a01b0390911681526020016100c3565b3480156101a757600080fd5b506100fc6101b6366004610b7f565b60026020526000908152604090205460ff1681565b61012c6101d9366004610b7f565b61054b565b3480156101ea57600080fd5b506100fc6101f9366004610b7f565b60009081526002602052604090205460ff1690565b34801561021a57600080fd5b5061012c610229366004610d7a565b610654565b34801561023a57600080fd5b5061012c6106af565b34801561024f57600080fd5b5061012c61025e366004610e79565b61075d565b61026b610798565b60008381526003602052604090205460ff16156102c85760405162461bcd60e51b8152602060048201526016602482015275139d5b1b1a599a595c88185b1c9958591e481d5cd95960521b60448201526064015b60405180910390fd5b6001600160a01b0382166103125760405162461bcd60e51b8152602060048201526011602482015270125b9d985b1a59081c9958da5c1a595b9d607a1b60448201526064016102bf565b600081116103625760405162461bcd60e51b815260206004820152601d60248201527f416d6f756e74206d7573742062652067726561746572207468616e203000000060448201526064016102bf565b478111156103b25760405162461bcd60e51b815260206004820152601d60248201527f496e73756666696369656e7420636f6e74726163742062616c616e636500000060448201526064016102bf565b6103bc85856107c2565b6103f85760405162461bcd60e51b815260206004820152600d60248201526c24b73b30b634b210383937b7b360991b60448201526064016102bf565b600083815260036020526040808220805460ff19166001179055516001600160a01b0384169083908381818185875af1925050503d8060008114610458576040519150601f19603f3d011682016040523d82523d6000602084013e61045d565b606091505b50509050806104a05760405162461bcd60e51b815260206004820152600f60248201526e151c985b9cd9995c8819985a5b1959608a1b60448201526064016102bf565b826001600160a01b0316847f13e7ed68a0fe9e4bcafdde5f49381514a9ee7e34ff7d926eadab64c1e0e77f16846040516104dc91815260200190565b60405180910390a384516040518381526001600160a01b0385169186917f9675c67edb39d5ae53cd37192a12d34a8b4341d9955d37e70e0968c6962c32a49060200160405180910390a45061053060018055565b5050505050565b61053f610953565b6105496000610980565b565b6000341161059b5760405162461bcd60e51b815260206004820152601d60248201527f416d6f756e74206d7573742062652067726561746572207468616e203000000060448201526064016102bf565b60008181526002602052604090205460ff16156105fa5760405162461bcd60e51b815260206004820152601760248201527f436f6d6d69746d656e7420616c7265616479207573656400000000000000000060448201526064016102bf565b60008181526002602052604090819020805460ff1916600117905551339082907f9d766aef52e78941250a642b5af57a61bd11631caef92cfe7cc1e7bb26d2f5df906106499034815260200190565b60405180910390a350565b61065c610953565b6106696004866002610a81565b506106776006856002610abf565b50610685600a846002610abf565b50610693600e836002610abf565b5080516106a7906012906020840190610b06565b505050505050565b6106b7610953565b600080546040516001600160a01b039091169047908381818185875af1925050503d8060008114610704576040519150601f19603f3d011682016040523d82523d6000602084013e610709565b606091505b505090508061075a5760405162461bcd60e51b815260206004820152601b60248201527f456d657267656e6379207769746864726177616c206661696c6564000000000060448201526064016102bf565b50565b610765610953565b6001600160a01b03811661078f57604051631e4fbdf760e01b8152600060048201526024016102bf565b61075a81610980565b6002600154036107bb57604051633ee5aeb560e01b815260040160405180910390fd5b6002600155565b60006107d183600001516109d0565b61080f5760405162461bcd60e51b815260206004820152600f60248201526e496e76616c69642070726f6f662e6160881b60448201526064016102bf565b61081c83604001516109d0565b61085a5760405162461bcd60e51b815260206004820152600f60248201526e496e76616c69642070726f6f662e6360881b60448201526064016102bf565b6108678360200151610a0c565b6108a55760405162461bcd60e51b815260206004820152600f60248201526e24b73b30b634b210383937b7b3173160891b60448201526064016102bf565b8151600080516020610e9e833981519152116108f65760405162461bcd60e51b815260206004820152601060248201526f496e76616c696420696e7075745b305d60801b60448201526064016102bf565b6020820151600080516020610e9e8339815191521161094a5760405162461bcd60e51b815260206004820152601060248201526f496e76616c696420696e7075745b315d60801b60448201526064016102bf565b50600192915050565b6000546001600160a01b031633146105495760405163118cdaa760e01b81523360048201526024016102bf565b600080546001600160a01b038381166001600160a01b0319831681178455604051919092169283917f8be0079c531659141344cd1fd0a4f28419497f9722a3daafe3b4186f6b6457e09190a35050565b8051600090600080516020610e9e833981519152118015610a065750600080516020610e9e8339815191528260015b6020020151105b92915050565b805151600090600080516020610e9e833981519152118015610a405750815160200151600080516020610e9e833981519152115b8015610a5e5750602082015151600080516020610e9e833981519152115b8015610a0657506020820151600080516020610e9e8339815191529060016109ff565b8260028101928215610aaf579160200282015b82811115610aaf578251825591602001919060010190610a94565b50610abb929150610b50565b5090565b600483019183908215610afa579160200282015b82811115610afa578251610aea9083906002610a81565b5091602001919060020190610ad3565b50610abb929150610b65565b828054828255906000526020600020906002028101928215610afa579160200282015b82811115610afa578251610b409083906002610a81565b5091602001919060020190610b29565b5b80821115610abb5760008155600101610b51565b80821115610abb5760008082556001820155600201610b65565b600060208284031215610b9157600080fd5b5035919050565b634e487b7160e01b600052604160045260246000fd5b6040805190810167ffffffffffffffff81118282101715610bd157610bd1610b98565b60405290565b604051601f8201601f1916810167ffffffffffffffff81118282101715610c0057610c00610b98565b604052919050565b600082601f830112610c1957600080fd5b610c21610bae565b806040840185811115610c3357600080fd5b845b81811015610c4d578035845260209384019301610c35565b509095945050505050565b600082601f830112610c6957600080fd5b610c71610bae565b806080840185811115610c8357600080fd5b845b81811015610c4d57610c978782610c08565b8452602090930192604001610c85565b6001600160a01b038116811461075a57600080fd5b60008060008060008587036101a0811215610cd657600080fd5b61010080821215610ce657600080fd5b60405191506060820182811067ffffffffffffffff82111715610d0b57610d0b610b98565b604052610d188989610c08565b8252610d278960408a01610c58565b6020830152610d398960c08a01610c08565b6040830152819650610d4d89828a01610c08565b955050506101408601359250610160860135610d6881610ca7565b94979396509194610180013592915050565b60008060008060006101e08688031215610d9357600080fd5b610d9d8787610c08565b94506040610dad88828901610c58565b9450610dbc8860c08901610c58565b9350610dcc886101408901610c58565b92506101c087013567ffffffffffffffff80821115610dea57600080fd5b818901915089601f830112610dfe57600080fd5b8135602082821115610e1257610e12610b98565b610e20818360051b01610bd7565b828152818101935060069290921b84018101918c831115610e4057600080fd5b938101935b82851015610e6657610e578d86610c08565b84529385019392810192610e45565b8096505050505050509295509295909350565b600060208284031215610e8b57600080fd5b8135610e9681610ca7565b939250505056fe30644e72e131a029b85045b68181585d97816a916871ca8d3c208c16d87cfd47a2646970667358221220834dcbc443c1599a2ca2d9fc5b1bad985f9ef9e21a9256d97a23ef9cd193c20a64736f6c63430008140033",
  "linkReferences": {},
  "deployedLinkReferences": {}
}